:020000040000FA
:0400000057EF00F0C6
:10000800C60AC60AC60AC60AC60AC60AC60AC60A68
:10001800C60AC60AC60AC60AC60AC60AC60AC60A58
:10002800C60AC60AC60AC60AC60AC60AC60AC60A48
:10003800C60AC60AC60A450A3C0AC60AC60A0E09FC
:10004800C60AC60A560AC60A2B00C60AC60AC60A3D
:10005800C60AC60AC60AC60AC60AC60AC60AC60A18
:10006800C60AC60A2B0A220AC60AC60AC60AC60A47
:10007800FE09C60A2B00C60AC60AC60A2B002B00B0
:100088002B002B002B002B002B002B00AF09C60ADE
:10009800C60AC60AC60AC60A2B002B002B002B006C
:0A00A800C60AC60AFF0057EF12F067
:1020000000312E3000004F637420323620323032DF
:10201000300031363A30313A333500009397360E7E
:102020004F6E230E506E000E516E38EC15F09399E2
:102030007A0E4F6E270E506E000E516E31EC15F079
:10204000000E3D01EC6F000EED6F000EEE6F000E06
:10205000EF6F000EF06F000EF16FB00EF26F800E9A
:10206000F36F000EF46F820EF56F060EF66F000E22
:10207000F76F000EF86F000EF96F000EFA6F220E68
:102080004F6E2B0E506E000E516E46EC15F0200E6A
:102090004F6E2B0E506E000E516E3FEC15F0FA0E87
:1020A0004F6E2A0E506E000E516E4DEC15F0000E64
:1020B0003B6E000E416E000E406E400E3F6E000EF5
:1020C0003E6E000E3D6E000E3C6E3901938712008D
:1020D0009695AA0E4F6E220E506E000E516E15ECA4
:1020E00015F096974C0E4F6E270E506E000E516EE7
:1020F0000EEC15F0000E3D01D46F000ED66F000EF1
:10210000D86FB00EDA6F800EDB6F000EDC6F820EC0
:10211000DD6F060EDE6F000EDF6F000EE06F000E4B
:10212000E16F000EE26F1E0E4F6E2B0E506E000E12
:10213000516E23EC15F01C0E4F6E2B0E506E000EE0
:10214000516E1CEC15F0F40E4F6E2A0E506E000E00
:10215000516E2AEC15F0000E426E000E486E000E15
:10216000476E400E466E000E456E000E446E000E29
:10217000436E390196851200000EBE6ED00EBD6E04
:10218000500EBA6E000EBB6E000EBC6E000EC66E18
:102190008F0EC26EC00EC36EE00EC46E200EC56EF2
:1021A000000E3A01706F000E606F000E506F000E4F
:1021B000806F810E406F200E716F000E816F000ED8
:1021C000516F0E0E416F000E616F000E5A6F000EC0
:1021D0005B6F000E6A6F000E6B6F000E7A6F000E61
:1021E0007B6F000E826F000E426F000E526F000E6A
:1021F000626F000E726F4369536963697369070EFA
:10220000836F44695469646974690F0E846F0F0E9B
:10221000E86F0F0E056F170EE56F1200000EFFEC52
:1022200014F007EC15F00009D8B4FBD7F5EC14F066
:102230004FC031F050C032F0CAB607D0392A0F0E65
:10224000396403D0000E586EBD80030E21EC14F0EB
:102250000009D8B421D0000E506E640E4F6E030EEC
:10226000D4EC13F080EC15F031C0EAF032C0EBF0A2
:10227000050E0001EC6FD890EB33EA33EC2FFBD75F
:10228000EA51100F70EC15F0CAA402D0810E01D0F3
:102290008C0EAC6E82EC15F031C02FF032C030F0F5
:1022A00031C054F032C055F012004550A00FD96E25
:1022B000DA6A000EDF6E3D01E1A712D04550A00F93
:1022C000D96EDA6A0001DF8201D80AD00500FA6E01
:1022D0001A50FD6E1B50FE6E1C50FF6EFA5012001D
:1022E0003D01E1A312D04550A00FD96EDA6A00017A
:1022F000DF8401D80AD00500FA6E1750FD6E185021
:10230000FE6E1950FF6EFA5012004550A00FD96EA4
:10231000DA6ADF50D8B40CD001D812000500FA6E8A
:102320001450FD6E1550FE6E1650FF6EFA501200DE
:1023300067EC14F012003E50600FD96EDA6A000E9E
:10234000DF6E3D01F9A712D03E50600FD96EDA6AF8
:102350000001DF8201D80AD00500FA6E1150FD6E2F
:102360001250FE6E1350FF6EFA5012003D01F9A399
:1023700012D03E50600FD96EDA6A0001DF8401D8B6
:102380000AD00500FA6E0E50FD6E0F50FE6E105012
:10239000FF6EFA5012003E50600FD96EDA6ADF50BD
:1023A000D8B40CD001D812000500FA6E0B50FD6EA7
:1023B0000C50FE6E0D50FF6EFA5012009BEC14F0A4
:1023C000120044EC13F0D28E84EC15F080EC15F082
:1023D000BD82000E556EFA0E546EE9EC13F0BD92FC
:1023E000030E506EE80E4F6E030ED4EC13F0270E62
:1023F000506E100E4F6E040ED4EC13F00EEC11F074
:10240000040E21EC14F00009D8B408D0270E506E49
:10241000100E4F6E040ED4EC13F00400030E21ECEA
:1024200014F00009D8B4EAD7030E506EE80E4F6ED0
:10243000030ED4EC13F0E2D73901A39F6000DBF068
:10244000B7FF6000D7F0B6FF1D501E101F10D8B4A4
:102450000CD001D80AD00500FA6E1D50FD6E1E503A
:10246000FE6E1F50FF6EFA501200000E4D6E4D5062
:10247000020DF350E00FD96EDA6ADE50DE10D8B4E8
:1024800009D04D50020DF350E00FD96EDA6ADE0626
:10249000000EDD5A4D2A040E4D64E9D73901A39F81
:1024A0006000DBF0B7FF6000D7F0B6FF1100140E3C
:1024B000F66E2B0EF76E000EF86E09006F00D4FF5B
:1024C00056F009006F00D4FF57F009006F00D4FFE9
:1024D00058F000EE00F110EE00F1EE6AE550E15028
:1024E000FCE1E250FAE100EE60F08A0EEE6AE806E6
:1024F000FDE100EE01F0480EEE6AE806FDE1080E8F
:10250000D56E000ED66E000ED76E0001E1EF11F011
:10251000000E3E01DE6F000EDF6F000EE06F000E5A
:10252000E16F000EE46F000EE56F000EEA6F800EA3
:10253000EC6F000EF16F400EF36F000EF46F000EA3
:10254000F56F000EF66F000EF76F000EF96F030EB9
:10255000FA6F200EFB6F000EFC6F000EFD6F000E79
:10256000FE6F3F0EFF6F940EF86F12005850D8A404
:10257000CDAA03D0BA9C86EC15F03A2A3A04D8A426
:102580001200BDA202D0010E01D0000EFF0A4E6E55
:102590004E46BD504E18FD0B4E18BD6EBDA802D064
:1025A000010E01D0000EFF0A4E6E4E3ABD504E187D
:1025B000EF0B4E18BD6E1200D28A000ED2BE010E75
:1025C0004F6ED29E550ED46EAA0ED46ED490000ECD
:1025D000D76E000ED66E080ED56E550ED46EAA0EAE
:1025E000D46ED4804FB002D0D29E01D0D28E3901A9
:1025F0008687868583898387838F888D8781848575
:102600001200000E9B6E000E9C6E060E9D6E850ED7
:10261000996EEE0E986EA89D98506F0064FE52F071
:10262000536A52C053F0526A5210376E5350386E8C
:10263000988DB80E4F6E290E506E000E516E54ECF0
:1026400015F0010E9A6E1200400EB96EE00EB76ED4
:10265000C00EB66EB6506F00DCFE52F0536A52C028
:1026600053F0526A5210356E5350366E3901A39FA3
:10267000938F1A0E4F6E2B0E506E000E516E69EC3A
:1026800015F0900EB86E1200DCEC12F032EC14F083
:10269000BCEC10F0CEEC14F088EC12F077EC13F0F8
:1026A0008FEC13F001EC13F0E9EC14F024EC13F0D0
:0A26B00068EC10F00EEC10F01200C0
:1026BC003901A89D37C049F038C04AF00FEC14F02E
:1026CC00205021102210D8B4110001D8110005009F
:1026DC00FA6E2050FD6E2150FE6E2250FF6EFA50A5
:1026EC001200010EA26E600EA16E000EA36E840E7F
:1026FC009F6E000E9E6E3901A7919781EA0E4F6E68
:10270C002A0E506E000E516E5BEC15F0850EA06E0D
:10271C001200010EAE6E600EAD6E000EAF6E9F0E0F
:10272C00AB6E000EAA6EA49594856C0E4F6E250EA2
:10273C00506E000E516E62EC15F0800EAC6E1200F5
:10274C00400E466011D0C00E4724D96EDA6A010ED5
:10275C00DA22DF503D01D26F472A3F0E476402D088
:10276C00000E476E462A1200390196971200400E51
:10277C003F6011D0400E4024D96EDA6A010EDA2285
:10278C00DF503D01EA6F402A3F0E406402D0000E3C
:10279C00406E3F2A1200390193991200536E4FC0BC
:1027AC0051F050C052F0D890513652365350020D61
:1027BC00F350E00FD96EDA6A600047F1DEFF60007B
:1027CC004BF1DDFF120054C04FF055C050F0000E1D
:1027DC00D4EC13F004D000F000F000F000F0000E88
:1027EC0021EC14F00009D8A41200F5D73901A791F7
:1027FC00055006100710D8B4110001D811000500BF
:10280C00FA6E0550FD6E0650FE6E0750FF6EFA50C4
:10281C0012009AA409D09A9060002BF199FF6000E5
:10282C0027F198FF9A80120060002BF199FF60004D
:10283C0027F198FF1200516E000E526E5150020D8E
:10284C00F350E00FD96EDA6ADE50DE10D8A402D055
:10285C00010E526E52501200000EC06F000EC16F6E
:10286C00000EC26F000EC36F000EC46F000EC56F5A
:0A287C00000EC66F000EC76F1200B9
:1028880029502A102B10D8B4110001D811000500C6
:10289800FA6E2950FD6E2A50FE6E2B50FF6EFA50CC
:0228A80012001C
:1028AC002C502D102E10D8B4110001D81100050099
:1028BC00FA6E2C50FD6E2D50FE6E2E50FF6EFA509F
:1028CC001200800E4524D96EDA6A010EDA226F00EE
:1028DC0043F7DFFF452A3F0E456402D0000E456EDC
:1028EC00432A1200235024102510D8B4110001D80B
:1028FC0011000500FA6E2350FD6E2450FE6E25501B
:06290C00FF6EFA501200FC
:10291400265027102810D8B4110001D81100050042
:10292400FA6E2650FD6E2750FE6E2850FF6EFA5048
:102934001200000E3E24D96EDA6A010EDA226F000C
:10294400A3F7DFFF3E2A3F0E3E6402D0000E3E6E28
:102954003C2A12003901A495334A342A345004E144
:10296400640E335CD8A01100BDEC14F0000E346E7C
:10297400000E336E1100085009100A10D8B412006A
:1029840001D812000500FA6E0850FD6E0950FE6E63
:102994000A50FF6EFA501200200E3901D96F000E52
:1029A400DB6F000EDD6F080EDF6F000EDE6FDCB133
:1029B4001200FDD7BEA002D0010E01D0000EFF0A06
:1029C400496EBE504918FE0B4918BE6E1200800EA7
:1029D400666E4F0E656EC00E646E3F015F51CF0B85
:1029E40010095F6F1200F051526E516AEF51512479
:1029F4004F6E000E5220506E12004F6E60003FF179
:102A0400F1FE3E01F88FF88112003E01F8B102D0C8
:102A1400010E1200000E12004FC029F050C02AF01F
:102A240051C02BF012004FC02CF050C02DF051C0FB
:102A34002EF012004FC017F050C018F051C019F01A
:102A440012004FC01AF050C01BF051C01CF012000D
:102A54004FC014F050C015F051C016F012004FC012
:102A640023F050C024F051C025F012004FC026F0CE
:102A740050C027F051C028F012004FC00EF050C0D3
:102A84000FF051C010F012004FC011F050C012F0FE
:102A940051C013F012004FC00BF050C00CF051C0E5
:102AA4000DF012004FC020F050C021F051C022F0B0
:102AB40012004FC005F050C006F051C007F01200DC
:102AC4004FC008F050C009F051C00AF012004FC0C6
:102AD4001DF050C01EF051C01FF012004F6E600078
:102AE4003FF1ABFF1200BA8C88EC15F0A7911200ED
:102AF40067EC14F012009BEC14F01200AC9E120070
:102B0400AC8E1200B88E1200A08E1200A09E12008D
:032B1400120601A5
:0C2B1800FFD71200120012001200120081
:020000040020DA
:10000000FF0FFF0FFF0FFF0FFF0FFF0FFF0FFF0F80
:020000040030CA
:0A000000AFFFFFFFEFC6FFFFFFFF99
:00000001FF
