:020000040000FA
:0400000057EF00F0C6
:10000800A40CA40CA40CA40CA40CA40CA40CA40C68
:10001800A40CA40CA40CA40CA40CA40CA40CA40C58
:10002800A40CA40CA40CA40CA40CA40CA40CA40C48
:10003800A40CA40CA40C360C2D0CA40CA40C070BBB
:10004800A40CA40CA40CA40C2B00A40CA40CA40CAD
:10005800A40CA40CA40CA40CA40CA40CA40CA40C18
:10006800A40CA40C1B0C120CA40CA40CA40CA40C23
:10007800A40CA40C2B00A40CA40CA40C2B002B0087
:100088002B002B002B002B002B002B00BA0BA40CF1
:10009800A40CA40CA40CA40C2B002B002B002B00EC
:0A00A800A40CA40CFF004EEF16F0AC
:1020000000312E300000256C753A20466C6F772029
:10201000256C752C2054656D7020256C75200D0A7B
:102020000041756720313720323032300031313A8B
:1020300030303A3535006C7500003F50D96EDA6AA1
:102040006F007FFFF6FF200EF76E000EF86E08009F
:10205000F550250AD8A4B1D03F50D96EDA6ADF2AEC
:10206000000E876F000E866F86C08AF087C08BF0E7
:10207000886989693F50D96EDA6A6F007FFFF6FF81
:10208000200EF76E000EF86E0800F550750AD8A401
:1020900035D03F50D96EDA6ADF2A4050D96EDA6AFD
:1020A000DF50DF2ADF2AD96EDA6A6F0078FF41F04D
:1020B0006F0074FF42F041C046F042C047F0486AEA
:1020C000496A4A6A4B6A4C6A4D6A3EC01FF046C074
:1020D00020F047C021F048C022F049C023F04AC098
:1020E00024F04BC025F04CC026F04DC027F0F4EC96
:1020F00010F01FC03EF020C03FF012003F50D96EDC
:10210000DA6ADF50066E360E076E000E096E020E9A
:10211000086E1DEC13F006500710D8A425D03F50D0
:10212000D96EDA6A020EDF264050D96EDA6A6F0085
:102130007CFF41F0040EDF264150D96EDA6A6F0051
:1021400078FF42F06F0078FF43F06F0078FF44F0B3
:102150006F0078FF45F04250466E4350476E445042
:10216000486E4550496EADD73F50D96EDA6A6F0060
:102170007FFFF6FF200EF76E000EF86E0800F55098
:10218000250AD8A411D03F50D96EDA6ADF2A000E92
:10219000076E250E066E3EC008F079EC15F0000EB5
:1021A0003F6E010E3E6E12003F50D96EDA6ADF2A92
:1021B000000E3F6E000E3E6E12003F50D96EDA6A7E
:1021C0006F007FFFF6FF200EF76E000EF86E08001E
:1021D000F550066E076A3EC008F079EC15F03F50E6
:1021E000D96EDA6ADF2ADBD789AF8A9389BF05D037
:1021F000895108E18805D8B005D0000E316E010E76
:10220000306E04D088C030F089C031F086C032F022
:1022100087C033F020C034F021C035F022C036F042
:1022200023C037F024C038F025C039F026C03AF07A
:1022300027C03BF0000E3D6E1F0E3C6E000E0101EC
:10224000F56F76D03C06D8A03D06D60E3C24D96E5C
:10225000010E3D20DA6E34C006F035C007F036C0FE
:1022600008F037C009F038C00AF039C00BF03AC0A6
:102270000CF03BC00DF00A0E0E6E000E0F6E000E3D
:10228000106E000E116E000E126E000E136E000E18
:10229000146E000E156EDBEC13F006C028F007C0BC
:1022A00029F008C02AF009C02BF00AC02CF00BC09E
:1022B0002DF00CC02EF00DC02FF02850300FDF6E27
:1022C0003006D8A031063206D8A0330634C006F056
:1022D00035C007F036C008F037C009F038C00AF042
:1022E00039C00BF03AC00CF03BC00DF00A0E0E6E78
:1022F000000E0F6E000E106E000E116E000E126EAC
:10230000000E136E000E146E000E156E4FEC12F0E0
:1023100006C034F007C035F008C036F009C037F009
:102320000AC038F00BC039F00CC03AF00DC03BF0D9
:102330003C503D10D8B41BD03450351036103710F7
:10234000381039103A103B10D8A47CD731BE05D0D4
:10235000315002E13004D8B075D733BE08D03350C5
:1023600003E13204D8A003D000018AB36BD71FC0A9
:1023700014F0D60E3C24156E010E3D20166E32C0B0
:1023800017F033C018F0C6EC15F014C01FF015C0DC
:1023900020F01200FFEC17F0D28EBA9C44EC19F03A
:1023A000BD82130E0C6E880E0B6EECEC17F0BD9216
:1023B000070E076ED00E066E020ED5EC17F0030E58
:1023C000076EE80E066E030ED5EC17F0270E076EAB
:1023D000100E066E040ED5EC17F0B6EC12F00AC023
:1023E00050F30BC051F3030E90EC18F00009D8B471
:1023F00010D0030E076EE80E066E030ED5EC17F034
:1024000050C306F051C307F0020ED5EC17F0BA8C9A
:10241000BA88020E90EC18F00009D8B409D0070E63
:10242000076ED00E066E020ED5EC17F0BA9CBA9865
:10243000040E90EC18F00009D8B4CFD7270E076E21
:10244000100E066E040ED5EC17F00400000E00010D
:102450009A6F030E9B6F060E9C6FCAC19DF0CBC195
:102460009EF0CCC19FF0CDC1A0F0D2C1A1F0D3C1EC
:10247000A2F0D4C1A3F0D5C1A4F0CEC1A5F0CFC1C4
:10248000A6F0D0C1A7F0D1C1A8F01CEC17F0010E46
:102490000101CA27000ECB23CC23CD239ED720EEEB
:1024A00016F0070EDE6AE806FDE20E500F1010105F
:1024B00011101210131014101510D8B446D0010EBC
:1024C0001E6E0AD0D8900E360F36103611361236E0
:1024D0001336143615361E2A15AEF4D7D890163694
:1024E0001736183619361A361B361C361D360E505E
:1024F000065C0F50075810500858115009581250D8
:102500000A5813500B5814500C5815500D58D8A099
:1025100011D00E50065E0F50075A1050085A115035
:10252000095A12500A5A13500B5A14500C5A15508B
:102530000D5A1680D89015321432133212321132DD
:1025400010320F320E321E2EC9D716C006F017C039
:1025500007F018C008F019C009F01AC00AF01BC033
:102560000BF01CC00CF01DC00DF01200010ED9ECD8
:1025700018F0E1EC18F00009D8B4FBD7CFEC18F054
:1025800006C0CEF107C0CFF10101D06BD16BD151A4
:10259000D01106E1E30ECE5D040ECF59D8A005D0D0
:1025A000010E0001B36F2C0EB26FCAB407D0BD820A
:1025B000BA8A010E0B6EAE0E0A6E1200000ED9EC36
:1025C00018F0E1EC18F00009D8B4FBD7CFEC18F004
:1025D00006C0D2F107C0D3F10101D46BD56BD55140
:1025E000D41106E1A10ED25D0F0ED359D8A019D097
:1025F000300E00018E5D750E8F59D8A00BD0BD92A4
:10260000BA9A750E8F6F310E8E6F000E0B6E010E23
:102610000A6E1200BD82BA8AB2C00AF0B3C00BF0D3
:102620001200000E00018F6F000E8E6FBD92BA9ADD
:10263000000E0B6E010E0A6E120006C00BF007C0F2
:102640000CF00806D8A0090608280DE10928D8A42E
:102650000AD0000E076E000E066E12000B2A0C2A1E
:102660000806D8A0090660002FF0F6FF200EF76ECE
:10267000000EF86E0800F5500009D8B427D06000AD
:1026800033F0F6FF200EF76E000EF86E0800F550DE
:102690000009D8B41BD008500910D8B417D0600076
:1026A0002FF0F6FF200EF76E000EF86E08006F0098
:1026B000D4FF0AF0600033F0F6FF200EF76E000E34
:1026C000F86E0800F5500A18D8B4C8D760002FF08B
:1026D000F6FF200EF76E000EF86E08006F00D4FFB4
:1026E0000AF0600033F0F6FF200EF76E000EF86E71
:1026F0000800F5500A5C066E076AD8A007061200AB
:102700009397B00E066E290E076E000E086E12EC3F
:1027100019F093994C0E066E2F0E076E000E086E80
:102720000BEC19F0000E3D01EC6F000EED6F000E8A
:10273000EE6F000EEF6F000EF06F000EF16FB00E37
:10274000F26F800EF36F000EF46F820EF56F060EBF
:10275000F66F000EF76F000EF86F000EF96F000EA7
:10276000FA6F9A0E066E320E076E000E086E20EC9F
:1027700019F0980E066E320E076E000E086E19ECF8
:1027800019F07E0E066E320E076E000E086E27ECF4
:1027900019F0000E0001906F000E946F000E556E40
:1027A000400E936F000E546E000E926F000E916FEC
:1027B0003901938712000E500F10101011101210D3
:1027C000131014101510D8B43CD0010E166E0AD098
:1027D000D8900E360F3610361136123613361436A0
:1027E0001536162A15AEF4D70E50065C0F50075852
:1027F000105008581150095812500A5813500B58CD
:1028000014500C5815500D58D8A010D00E50065E1C
:102810000F50075A1050085A1150095A12500A5AAC
:1028200013500B5A14500C5A15500D5AD89015329B
:10283000143213321232113210320F320E32162E7F
:10284000D3D706C006F007C007F008C008F009C0DB
:1028500009F00AC00AF00BC00BF00CC00CF00DC060
:102860000DF0120096950E0E066E290E076E000EE4
:10287000086EEFEC18F096971C0E066E2F0E076E82
:10288000000E086EE8EC18F0000E3D01D46F000E4B
:10289000D66F000ED86FB00EDA6F800EDB6F000EB1
:1028A000DC6F820EDD6F060EDE6F000EDF6F000E36
:1028B000E06F000EE16F000EE26F960E066E320EB4
:1028C000076E000E086EFDEC18F0940E066E320EC8
:1028D000076E000E086EF6EC18F0780E066E320EDB
:1028E000076E000E086E04EC19F0000E0001956FE3
:1028F000000E996F000E576E400E986F000E566EC8
:10290000000E976F000E966F390196851200400EEB
:102910005624D96EDA6A010EDA22000EDF6E3D010E
:10292000E1A715D0400E5624D96EDA6A010EDA22DC
:102930000101DF8201D80BD00500FA6E00016F5152
:10294000FD6E7051FE6E7151FF6EFA5012003D0126
:10295000E1A315D0400E5624D96EDA6A010EDA22B0
:102960000101DF8401D80BD00500FA6E00016C5123
:10297000FD6E6D51FE6E6E51FF6EFA501200400EEC
:102980005624D96EDA6A010EDA22DF50D8B40DD09F
:1029900001D812000500FA6E00016951FD6E6A51FE
:1029A000FE6E6B51FF6EFA50120048EC18F01200E8
:1029B000000E5424D96EDA6A010EDA22000EDF6EA0
:1029C0003D01F9A715D0000E5424D96EDA6A010E24
:1029D000DA220101DF8201D80BD00500FA6E000176
:1029E0006651FD6E6751FE6E6851FF6EFA5012001F
:1029F0003D01F9A315D0000E5424D96EDA6A010EF8
:102A0000DA220101DF8401D80BD00500FA6E000143
:102A10006351FD6E6451FE6E6551FF6EFA501200F7
:102A2000000E5424D96EDA6A010EDA22DF50D8B4CF
:102A30000DD001D812000500FA6E00016051FD6E44
:102A40006151FE6E6251FF6EFA5012007EEC18F07A
:102A50001200000EBE6E000EBD6E000EBA6E000EAD
:102A6000BB6E000EBC6E000EC66E8F0EC26EC00E28
:102A7000C36EE00EC46E000EC56E000E3A01706F9C
:102A8000000E606F000E506F000E806F830E406F5F
:102A9000000E716F000E816F000E516F0C0E416FB2
:102AA000000E616F000E5A6F000E5B6F000E6A6FB2
:102AB000000E6B6F000E7A6F000E7B6F000E826F40
:102AC000000E426F000E526F000E626F000E726FAA
:102AD0004369536963697369070E836F4469546975
:102AE000646974690F0E846F0F0EE86F170EE56F3F
:102AF00012000850D8B403D00850D8A404D006500F
:102B000046EC19F012000850D96EDA6A040ED92684
:102B1000DE50DE10D8B414D00850D96EDA6A040E34
:102B2000D9260850E16EE26A020EE126DE50E65C2C
:102B3000E650800A0D6EDE50800A0D58D8B01200A3
:102B40000850D96EDA6A020ED9266F0078FF09F0B4
:102B50006F0074FF0AF00850D96EDA6A6F0078FFD0
:102B60000BF06F0074FF0CF009500B24D96E0A5063
:102B70000C20DA6E60001BF0DFFF0850D96EDA6AB5
:102B8000020ED926DE2A000EDD22120000018AA1E3
:102B900008D015C00EF016C00FF014C010F05AEC9B
:102BA00017F018BE05D017C01CF018C01DF004D0D7
:102BB000000E1D6E000E1C6E000E1B6E000E1A6EB7
:102BC0000AD0000E076E200E066E14C008F079ECD5
:102BD00015F01A4A1B2A1C501A5C1B50800A196EE9
:102BE0001D50800A1958D8A0ECD700018AB108D02E
:102BF00015C00EF016C00FF014C010F05AEC17F00C
:102C000015C006F016C007F0BEEC17F01C500624E5
:0A2C1000146E1D500720156E12000F
:102C1C003901A39F60004FF1B7FF60004BF1B6FF85
:102C2C000001725173117411D8B40CD001D80AD0B0
:102C3C000500FA6E7251FD6E7351FE6E7451FF6E8B
:102C4C00FA501200000E056E0550020DC00EF32452
:102C5C00D96E010EF420DA6EDE50DE10D8B40BD033
:102C6C000550020DC00EF324D96E010EF420DA6E5D
:102C7C00DE06000EDD5A052A040E0564E5D739017F
:102C8C00A39F60004FF1B7FF60004BF1B6FF11003E
:102C9C00840EF66E320EF76E000EF86E00EEB2F089
:102CAC0010EE04F009006F00D7FFEEFFE550E15085
:102CBC00F9E100EE00F2C00EEE6AE806FDE100EE6E
:102CCC0000F1F60EEE6AE806FDE100EE60F03A0E59
:102CDC00EE6AE806FDE1576A566A556A546A536A09
:102CEC00526A080ED56E000ED66E000ED76E00011D
:102CFC00CAEF11F0000E3E01DE6F000EDF6F000E0A
:102D0C00E06F000EE16F000EE46F000EE56F000E39
:102D1C00EA6F000EEC6F000EF16F200EF36F000ED9
:102D2C00F46F000EF56F000EF66F000EF76F000ECD
:102D3C00F96F000EFA6F000EFB6F000EFC6F000EA9
:102D4C00FD6F000EFE6F000EFF6F940EF86F1200F9
:102D5C00000E9B6E000E9C6E060E9D6E850E996E7F
:102D6C00EE0E986E3901A89D98506F0064FE09F024
:102D7C000A6A09C00AF0096A091000018C6F0A502E
:102D8C008D6F3901988D640E066E310E076E000E34
:102D9C00086E2EEC19F0010E9A6E12004FC051F015
:102DAC00000E856F000E846F0DD04EC03EF0510E9C
:102DBC003F6E50C040F01DEC10F03E5000018427D7
:102DCC003F508523600047F1F6FF200EF76E000E92
:102DDC00F86E0800F5500009D8A4E7D784C04EF06F
:102DEC0085C04FF01200D28A000ED2BE010E066EC4
:102DFC00D29E550ED46EAA0ED46ED490000ED76E01
:102E0C00000ED66E080ED56E550ED46EAA0ED46E6C
:102E1C00D48006B002D0D29E01D0D28E39018687E2
:102E2C00868583898387838F888D12009D0EAB6F77
:102E3C009AC0ACF09BC0ADF0000EAF6F000EAE6F41
:102E4C00000EB16F000EB06FAC0E4E6E9CC04FF00A
:102E5C00AB0E506ED4EC16F0AE519A25D96EAF5124
:102E6C009B21DA6E000EDF6E1200400EB96EE00E82
:102E7C00B76EC00EB66EB6506F00DCFE09F00A6A73
:102E8C0009C00AF0096A0910526E0A50536EA39FCA
:102E9C00938F920E066E320E076E000E086E35EC96
:102EAC0019F0900EB86E1200000E136E000E126E1A
:102EBC0009D011C006F0076A10C008F079EC15F0C3
:102ECC00124A132A12500E24D96E13500F20DA6EA8
:102EDC00DF50116E1150D8B41200EBD73901A89DF8
:102EEC008CC001F08DC002F012EC18F0000175518D
:102EFC0076117711D8B4110001D811000500FA6EC3
:102F0C007551FD6E7651FE6E7751FF6EFA501200C0
:102F1C00400E986112D0800E5724D96EDA6A010ED9
:102F2C00DA22DF503D01D26F572A3F0E576402D090
:102F3C00000E576E0001982B120039019697120063
:102F4C00400E936112D0400E5524D96EDA6A020EEF
:102F5C00DA22DF503D01EA6F552A3F0E556402D04C
:102F6C00000E556E0001932B12003901939912003B
:102F7C0006C008F007C009F002D0064A072A600014
:102F8C001BF0D9FF60001FF0DAFFDF50D8A4F5D793
:102F9C000850065C066E09500758076E12000A6E40
:102FAC0006C008F007C009F0D890083609360A5058
:102FBC00020DC00EF324D96E010EF420DA6E6000FF
:102FCC0023F0DEFF600027F0DDFF12000BC006F0DF
:102FDC000CC007F0000ED5EC17F004D000F000F098
:102FEC0000F000F0000E90EC18F00009D8A41200CC
:102FFC00F5D7F9EC16F0A1EC18F029EC15F0C1ECB2
:10300C0018F080EC16F0AEEC16F03BEC17F032EC4E
:10301C0014F080EC13F012009AA409D09A9060007E
:10302C000BF099FF600007F098FF9A801200600087
:10303C000BF099FF600007F098FF120000017E5121
:10304C007F118011D8B4110001D811000500FA6E5F
:10305C007E51FD6E7F51FE6E8051FF6EFA50120054
:10306C000001815182118311D8B4110001D81100D3
:10307C000500FA6E8151FD6E8251FE6E8351FF6E1A
:10308C00FA501200800E5624D96EDA6A020EDA2239
:10309C006F0043F7DFFF562A3F0E566402D0000E36
:1030AC00566E0001962B12000001785179117A119D
:1030BC00D8B4110001D811000500FA6E7851FD6EDC
:1030CC007951FE6E7A51FF6EFA50120000017B515D
:1030DC007C117D11D8B4110001D811000500FA6ED5
:1030EC007B51FD6E7C51FE6E7D51FF6EFA501200CD
:1030FC00000E5424D96EDA6A020EDA226F00A3F79E
:10310C00DFFF542A3F0E546402D0000E546E0001AF
:10311C00912B1200086E0850020DC00EF324D96ECC
:10312C00010EF420DA6EDE50DE10D8A402D0010EAF
:10313C001200000E1200000EC06F000EC16F000EC8
:10314C00C26F000EC36F000EC46F000EC56F000E71
:10315C00C66F000EC76F1200BEA002D0010E01D0C8
:10316C00000EFF0A016EBE500118FE0B0118BE6E58
:10317C008E4B8F2B1200200E3901D96F000EDB6F96
:10318C00000EDD6F080EDF6F000EDE6FDCB112007B
:10319C00FDD7F051096E086AEF510824066E000E37
:1031AC000920076E1200066E60001BF0F1FE3E0156
:1031BC00F88FF88112003E01F8B102D0010E120016
:1031CC00000E120006C07EF007C07FF008C080F031
:1031DC00120006C081F007C082F008C083F0120014
:1031EC0006C06CF007C06DF008C06EF0120006C08F
:1031FC006FF007C070F008C071F0120006C069F0E3
:10320C0007C06AF008C06BF0120006C078F007C067
:10321C0079F008C07AF0120006C07BF007C07CF091
:10322C0008C07DF0120006C063F007C064F008C04F
:10323C0065F0120006C066F007C067F008C068F0C1
:10324C00120006C060F007C061F008C062F0120006
:10325C0006C075F007C076F008C077F0120006C003
:10326C0072F007C073F008C074F0120048EC18F04C
:10327C0012007EEC18F01200AE012D21B88E120057
:02328C0012002E
:0C329000FFD71200120012001200120002
:020000040020DA
:10000000FF0FFF0FFF0FFF0FFF0FFF0FFF0FFF0F80
:020000040030CA
:0A000000AFFFFFFFEFC6FFFFFFFF99
:00000001FF
