:020000040000FA
:0400000057EF00F0C6
:10000800CF13CF13CF13CF13CF13CF13CF13CF13D8
:10001800CF13CF13CF13CF13CF13CF13CF13CF13C8
:10002800CF13CF13CF13CF13CF13CF13CF13CF13B8
:10003800CF13CF13CF13E512DC12CF13CF13CF1387
:10004800CF13CF13CF13CF132B00CF13CF13CF134F
:10005800CF13CF13CF13CF13CF13CF13CF13CF1388
:10006800CF13CF130013F712CF13CF13CF13CF1320
:10007800CF13CF132B00CF13CF13CF132B002B008D
:100088002B002B002B002B002B002B007A12CF13F8
:10009800C912CF13CF13CF132B002B002B002B002B
:0A00A800CF13CF13FF00D3EF21F0B8
:102000000020482025692C204D20256920202020F3
:1020100020002053636F72652025692025692020E8
:10202000202000535720257320506C617921003106
:102030002E30370052300D0054320D0043340D0065
:1020400046340D004D340D0058510D00257300002D
:102050001950800B226E19501924246E18BE24804A
:102060002450D8B40DD02428D8A408D0000E166E61
:10207000000E176E000E186E000E196E188E08D026
:10208000000E166E000E176E000E186E000E196E02
:102090001D50800B221A1D501D24236E1CBE238050
:1020A0002350D8B40DD02328D8A408D0000E1A6E1F
:1020B000000E1B6E000E1C6E000E1D6E1C8E08D0D6
:1020C000000E1A6E000E1B6E000E1C6E000E1D6EB2
:1020D0002350D8B403D02450D8A409D0000E166ED3
:1020E000000E176E000E186E000E196E12001C50B6
:1020F00016026F00CCFF2DF06F00D0FF2EF02D5098
:10210000256E266A276A286A2E50296E2A6A2B6A4B
:102110002C6A1B5017026F00CCFF2DF06F00D0FF10
:102120002EF02D502526000E2622272228222E5062
:102130002926000E2A222B222C221A5018026F0068
:10214000CCFF2DF06F00D0FF2EF02D502526000E75
:102150002622272228222E502926000E2A222B2230
:102160002C2227C028F026C027F025C026F0256A9B
:102170001A5017026F00CCFF2DF06F00D0FF2EF029
:102180002D5025262E502622000E2722000E282212
:102190001B5016026F00CCFF2DF06F00D0FF2EF009
:1021A0002D5025262E502622000E2722000E2822F2
:1021B00027C028F026C027F025C026F0256A1A502F
:1021C00016026F00CCFF2DF06F00D0FF2EF02D50C7
:1021D00025262E502622000E2722000E28221C50D3
:1021E00017026F00CCFF2DF06F00D0FF2EF02D50A6
:1021F00029262E502A22000E2B22000E2C221B50A4
:1022000018026F00CCFF2DF06F00D0FF2EF02D5084
:1022100029262E502A22000E2B22000E2C221C5082
:1022200018026F00CCFF2DF06F00D0FF2EF02D5064
:102230001E6E2E501F6E206A216A20C021F01FC022
:1022400020F01EC01FF01E6A1E5029261F502A2291
:1022500020502B2221502C2228502926000E2A22E1
:102260002B222C2227C028F026C027F025C026F0DC
:10227000256A235024C01EF01F6A1E26000E1F224E
:10228000820E1E242D6EFF0E1F202E6E0FD0D890B2
:1022900029362A362B362C3628BE2980D89025366A
:1022A0002636273628362D06D8A02E062BAEEFD799
:1022B000000E236E28AE17D0FF0E25141E6EFF0EE3
:1022C00026141F6EFF0E2714206E7F0E2814216E19
:1022D0001E501F1020102110D8B403D0010E236E01
:1022E00002D029B0FBD72350D8B41FD0010E292625
:1022F000000E2A222B222C222CA017D029C01EF03F
:102300002AC01FF02BC020F02CC021F02134213234
:1023100020321F321E321EC029F01FC02AF020C0FA
:102320002BF021C02CF02D4A2E2A2EBE0DD02E507F
:1023300003E12D28D8A008D0000E296E000E2A6EC9
:10234000800E2B6E7F0E20D02EBE05D02E500EE1BB
:102350002D04D8B00BD0000E296E000E2A6E000E90
:102360002B6E000E2C6E000E226E0FD02DC024F0AE
:10237000FF0E2916FF0E2A167F0E2B16000E2C16A6
:1023800024B02B8ED89024302C6E22502C1229C0D1
:1023900016F02AC017F02BC018F02CC019F012004C
:1023A0000950800B126E09500924146E08BE148067
:1023B0001450D8B40DD01428D8A408D0000E066E3E
:1023C000000E076E000E086E000E096E088E06D015
:1023D000000E066E000E076E000E086E000E096EEF
:1023E0000D50800B136E12501318D8A4128C0D5080
:1023F0000D24136E0CBE13801350D8B40DD01328C7
:10240000D8A408D0000E0A6E000E0B6E000E0C6EE3
:10241000000E0D6E0C8E06D0000E0A6E000E0B6EB6
:10242000000E0C6E000E0D6E1450135CD8B022D04E
:1024300012AC02D0800E121A14C015F013C014F0A2
:1024400015C013F006C015F00AC006F015C00AF05A
:1024500007C015F00BC007F015C00BF008C015F051
:102460000CC008F015C00CF009C015F00DC009F043
:1024700015C00DF0000E156E145013C00EF00F6A4B
:102480000E5E000E0F5A0FBE2CD00F5004E11A0E34
:102490000E5CD8A026D00650071008100910D8B43A
:1024A00002D0010E01D0000E156E000E066E000E59
:1024B000076E000E086E000E096E13C014F015D0E2
:1024C00015A005D0D89015300109156E02D0D8900E
:1024D000153206B0158E0934093208320732063239
:1024E000142A1350145CD8A0EBD712BC28D0145077
:1024F000D8A409D0000E066E000E076E000E086EFE
:10250000000E096E12000A5006260B5007220C50CE
:1025100008220D50092209A071D015A005D0D8902D
:1025200015300109156E02D0D890153206B0158EFF
:1025300009340932083207320632142A5FD00A50B1
:10254000065C0B5007580C5008580950800A0E6E54
:102550000D50800A0E58D8B025D006500A5C0E6E79
:1025600007500B580F6E08500C58106E09500D583C
:10257000116EFF0E0E24066EFF0E0F20076EFF0E6B
:102580001020086EFF0E1120096E800E121A156CB5
:102590001550D8A40FD0010E0626000E07220822DF
:1025A000092208D00A50065E0B50075A0C50085AF0
:1025B0000D50095A0650071008100910D8A41CD055
:1025C0001550D8A419D0000E066E000E076E000E2E
:1025D000086E000E096E1200D890063607360836CF
:1025E000093615BE068015A002D0D88001D0D8903B
:1025F00015361450D8A4140608AEEED7000E136E8C
:1026000015AE0BD015C00EF07F0E0E16D8B403D049
:10261000010E136E02D006B0FBD71350D8B420D0F1
:10262000010E0626000E07220822092209A018D052
:1026300006C00EF007C00FF008C010F009C011F07E
:102640001134113210320F320E320EC006F00FC0AC
:1026500007F010C008F011C009F01428D8A4142AFB
:102660001428D8B403D01450D8A40DD0000E066E90
:10267000000E076E000E086E000E096E1450D8A4EE
:1026800002D0000E126E14A002D0088E01D0089E57
:10269000D8901430096E12BE098E06C006F007C02D
:1026A00007F008C008F009C009F01200126E120409
:1026B000D8A403D0A9C1B0F11200020E1218D8A4F8
:1026C00010D00101CB51D8B409D0000ECB6F750EDC
:1026D000076E300E066E060E3CEC25F00101B02BA5
:1026E00012001250D8A455D001018E51106E8F5196
:1026F000116E8E4B8F2B0E50105C0F501158D8A0BE
:1027000048D0ADC0B0F10001AC51D8B40CD09E514E
:102710009F11D8B408D0D8909E359E6F9F359F6F7B
:10272000AD51AD2514D09E519F11D8B40ED09EC08E
:1027300006F09FC007F0000E096E020E086E91ECC5
:1027400021F006C09EF007C09FF0D890AD31AD6F6C
:102750009FBF06D09F510AE1020E9E5DD8B006D001
:10276000000E9F6F020E9E6F010E0DD09FBF0CD00A
:102770009F5104E1810E9E5DD8A006D0000E9F6F90
:10278000800E9E6F000EAC6F000E01018F6F000E69
:102790008E6F030E1218D8A412000101DFAF0AD009
:1027A000890EDE5DFF0EDF59D8B004D0800EB06F09
:1027B000000EB86FDFAF06D0890EDE5DFF0EDF5969
:1027C000D8A00CD0DFAF0AD0B00EDE5DFF0EDF590F
:1027D000D8B004D0400EB06F000EB86FDFAF06D097
:1027E000B00EDE5DFF0EDF59D8A00CD0DFAF0AD0EF
:1027F000E20EDE5DFF0EDF59D8B004D0200EB06FC0
:10280000000EB86FDFAF06D0E20EDE5DFF0EDF59BF
:10281000D8A01BD0DFAF19D0FB0EDE5DFF0EDF5955
:10282000D8B013D0B851D8B40BD0AF510209AF6FA4
:10283000BD07010E076EF40E066E070E3CEC25F088
:10284000100E0101B06F000EB86FDFAF06D0FB0EA7
:10285000DE5DFF0EDF59D8A025D0DFBF06D0DF51E7
:1028600021E1060EDE5DD8B01DD0B805D8B415D074
:10287000AF510109AF6F070EA6EC25F00009D8B4DF
:1028800005D0320E0101BD6101D0BD2B010E076ED6
:10289000F40E066E070E3CEC25F0000E0101B06F41
:1028A000010EB86FDFBF22D0DF5104E1060EDE5DFE
:1028B000D8A01CD0DFBF06D0DF5118E11E0EDE5DB0
:1028C000D8B014D0020EB819D8B40CD0AF51040946
:1028D000AF6F010E076EF40E066E070E3CEC25F08E
:1028E0000101BD07080EB06F020EB86FDFBF12D036
:1028F000DF5104E11E0EDE5DD8A00CD0DFBF06D094
:10290000DF5108E1500EDE5DD8B004D0040EB06F88
:10291000020EB86FDFBF12D0DF5104E1500EDE5D52
:10292000D8A00CD0DFBF06D0DF5108E1780EDE5D05
:10293000D8B004D0020EB06F020EB86FDFBF120025
:10294000DF5104E1780EDE5DD8A01200010EB06FF9
:10295000020EB86F12003A50800B476E3A503A247C
:102960004E6E39BE4E804E50D8B40DD04E28D8A4ED
:1029700008D0000E376E000E386E000E396E000E55
:102980003A6E398E06D0000E376E000E386E000E8D
:10299000396E000E3A6E3E50800B471A3E503E2470
:1029A0004F6E3DBE4F804F50D8B40DD04F28D8A4A5
:1029B00008D0000E3B6E000E3C6E000E3D6E000E09
:1029C0003E6E3D8E06D0000E3B6E000E3C6E000E3D
:1029D0003D6E000E3E6E3B503C103D103E10D8A4A4
:1029E00017D0000E376E000E386E000E396E000ED6
:1029F0003A6E800E39127F0E3A1247503A1237C0A3
:102A000037F038C038F039C039F03AC03AF0120027
:102A10004E50D8A409D0000E376E000E386E000E4E
:102A2000396E000E3A6E12004F504EC03FF0406AB1
:102A30003F5E000E405A7F0E3F24486E000E40203D
:102A4000496E37C043F038C044F039C045F03AC051
:102A500046F0000E376E000E386E000E396E000E16
:102A60003A6E000E4A6E000E4B6E000E4C6E000E5B
:102A70004D6E000E4F6E28D04F50D8B411D0D89064
:102A80004336443645364636D890373638363936AA
:102A90003A364DBE3780D8904A364B364C364D3696
:102AA0003B50435C3C5044583D5045583E5046587E
:102AB000D8A009D04D8C3B50435E3C50445A3D5009
:102AC000455A3E50465A4F2A190E4F64D5D74350A7
:102AD000441045104610D8B411D04A800FD0D89079
:102AE0003736383639363A364DBE3780D8904A3682
:102AF0004B364C364D364806D8A0490639AEEFD78E
:102B0000000E4F6E4DAE17D0FF0E4A143F6EFF0EF3
:102B10004B14406EFF0E4C14416E7F0E4D14426EEE
:102B20003F50401041104210D8B403D0010E4F6EF8
:102B300002D037B0FBD74F50D8B41FD0010E372684
:102B4000000E382239223A223AA017D037C03FF07F
:102B500038C040F039C041F03AC042F0423442320D
:102B6000413240323F323FC037F040C038F041C0C0
:102B700039F042C03AF0484A492A49BE10D049507B
:102B800003E14828D8A00BD0000E496E4868000E1B
:102B9000376E000E386E000E396E000E3A6E49BE6A
:102BA00005D0495011E14804D8B00ED0000E496E4E
:102BB000000E486E000E376E000E386E000E396E35
:102BC000000E3A6E000E476E48C04EF04EA002D086
:102BD000398E01D0399ED8904E303A6E0ED7000112
:102BE00065BF0FD0655104E1080E645DD8A009D01F
:102BF00060C060F061C061F062C062F063C063F009
:102C0000120066516711D8B408D00A0E6C6FD70E47
:102C10006D6F230E6E6F3C0E07D0000E6C6F000EB2
:102C20006D6F800E6E6F3E0E6F6F000E1A6E000E8F
:102C30001B6EC80E1C6E420E1D6E000E506E010EF5
:102C4000516ED8906435D96E6535DA6ED890D93624
:102C5000DA365050D9265150DA226F0078FF16F03C
:102C60006F0078FF17F06F0078FF18F06F0078FFA3
:102C700019F028EC10F016C033F017C034F018C06B
:102C800035F019C036F0000E1A6E000E1B6EC80E1D
:102C90001C6E420E1D6E60C016F061C017F062C05F
:102CA00018F063C019F028EC10F016C02FF017C010
:102CB00030F018C031F019C032F03DEC23F02FC0D5
:102CC00068F030C069F031C06AF032C06BF06CC09F
:102CD0001AF06DC01BF06EC01CF06FC01DF068C014
:102CE00016F069C017F06AC018F06BC019F028EC34
:102CF00010F016C00AF017C00BF018C00CF019C085
:102D00000DF0000E1A6E000E1B6EC80E1C6E420EE9
:102D10001D6E000E506E010E516ED890000164358C
:102D2000D96E6535DA6ED890D936DA365050D92654
:102D30005150DA226F0078FF16F06F0078FF17F01D
:102D40006F0078FF18F06F0078FF19F028EC10F092
:102D500016C006F017C007F018C008F019C009F037
:102D6000D0EC11F006C037F007C038F008C039F0D9
:102D700009C03AF0000E3B6E000E3C6EC80E3D6E70
:102D8000420E3E6EABEC14F037C070F038C071F0FC
:102D900039C072F03AC073F0000E506E010E516EE1
:102DA000D89000016435D96E6535DA6ED890D93681
:102DB000DA365050D9265150DA226000C3F1DEFFD6
:102DC0006000C7F1DEFF6000CBF1DEFF6000CFF1F5
:102DD000DEFF662923E16729D8A420D0000E706F9A
:102DE000000E716F000E726F000E736F000E506E4A
:102DF000010E516ED8906435D96E6535DA6ED89073
:102E0000D936DA365050D9265150DA22000EDE6E0D
:102E1000000EDE6E000EDE6E000EDD6E70C060F025
:102E200071C061F072C062F073C063F0120025C01F
:102E30003DF026C03EF027C03FF028C040F029C03A
:102E400041F02AC042F02BC043F02CC044F044AE05
:102E500002D0010E01D0000E3B6E3C6A3B503C108C
:102E6000D8B410D0441E431E421E411E401E3F1EB9
:102E70003E1E3D6C000E3E223F2240224122422255
:102E8000432244229DAF56929DBF05D09D5108E13B
:102E90009C05D8B005D0000E386E010E376E04D0F8
:102EA0009CC037F09DC038F08CC139F08DC13AF02C
:102EB0003B503C10D8A402D056A403D03906D8A069
:102EC0003A06000E466E1F0E456E000E02019F6F01
:102ED0007CD04506D8A04606800E4524D96E020E49
:102EE0004620DA6E3DC006F03EC007F03FC008F055
:102EF00040C009F041C00AF042C00BF043C00CF0E2
:102F000044C00DF00A0E0E6E000E0F6E000E106E15
:102F1000000E116E000E126E000E136E000E146E77
:102F2000000E156E21EC1CF006C02DF007C02EF02F
:102F300008C02FF009C030F00AC031F00BC032F0E9
:102F40000CC033F00DC034F02DC018F02FC019F0B4
:102F50008FEC24F01850300FDF6E3706D8A03806FB
:102F60003906D8A03A063DC006F03EC007F03FC083
:102F700008F040C009F041C00AF042C00BF043C065
:102F80000CF044C00DF00A0E0E6E000E0F6E000E17
:102F9000106E000E116E000E126E000E136E000EFB
:102FA000146E000E156EDDEC1AF006C03DF007C081
:102FB0003EF008C03FF009C040F00AC041F00BC02D
:102FC00042F00CC043F00DC044F046BE1FD0465046
:102FD00003E14504D8A01AD03D503E103F104010E8
:102FE0004110421043104410D8A473D738BE05D006
:102FF000385002E13704D8B06CD73ABE07D03A5007
:1030000003E13904D8A002D056B263D73B503C103C
:10301000D8A402D056A418D04506D8A046063B50E6
:103020003C10D8A404D0000E366E2B0E03D0000E38
:10303000366E2D0E356E800E4524D96E020E46205A
:10304000DA6E6000D7F0DFFF23C018F024C019F05B
:10305000800E45241A6E020E46201B6E39C01CF0ED
:103060003AC01DF0BDEC20F018C023F019C024F0C8
:103070001200000E0001816F030EA6EC25F000097E
:10308000D8A405D0000E0101B56F000E1200010199
:10309000C651C42500017E6F0101C751C521000141
:1030A0007F6F0A0E7E25066E000E7F21076E030ECF
:1030B0003CEC25F0000E23EC27F07FEC27F0000914
:1030C000D8B4FBD711EC27F006C0C0F107C0C1F19E
:1030D000C0C17AF0C1C17BF0B3EC1CF0000EB76F39
:1030E00092EC27F00009D8B43FD060EC23F0000147
:1030F000816F20D0530E8119D8A436D0010E17D07D
:10310000520E8119D8A430D0020E11D0510E81195F
:10311000D8A42AD0030E0BD0200E8119D8A424D015
:10312000040E05D081C0B9F1050E01D0000E0101D9
:10313000B76F1AD00101B75100017E6F7F6B7F51CD
:10314000000AD8A4F3D77E51000AD8B4D3D7010A15
:10315000D8B4D6D7030AD8B4D9D7010AD8B4DCD7A3
:10316000070AD8B4DFD7E2D7440EC4EC23F001013C
:10317000B251C4EC23F00101B151C4EC23F00101C0
:10318000AF51C4EC23F00101B051C4EC23F00101B4
:10319000AE51C4EC23F00D0EC4EC23F04C0E000134
:1031A000646F340E656F6551D8A4200E666FC9EC4C
:1031B00026F0010EB46F020EB56F000E076EFA0E08
:1031C000066E020E3CEC25F014D0020EA6EC25F0A3
:1031D0000009D8B40ED0A0C006F0076AA8EC24F00D
:1031E0000001A02B030EA06502D0000EA06F060EFA
:1031F0004AD792EC27F00009D8B4E7D7000E806FC9
:10320000000E076EFA0E066E020E3CEC25F015D08D
:1032100092EC27F00009D8B410D060EC23F0000144
:103220007E6F8051AD08D96E000ED8A0E82A010843
:10323000DA6E6000FBF1DFFF802B020EA6EC25F0BA
:103240000009D8A404D0050E00018065E1D7020E64
:10325000A6EC25F00009D8A404D0060E0001806178
:1032600009D0A0C006F0076AA8EC24F00001A02B4A
:10327000100EB9D792EC27F00009D8A460EC23F027
:10328000010E0101B36F030EB56F020EB66F000E93
:10329000076EC70E066EA8EC24F0050E0101B56F8F
:1032A000010E12004950D96EDA6A6F007FFFF6FFF7
:1032B000200EF76E000EF86E0800F550250AD8A40F
:1032C000BFD04950D96EDA6ADF2A000E01018D6F36
:1032D000000E8C6F8CC156F08DC157F000019C69B7
:1032E0009D694950D96EDA6A6F007FFFF6FF200EA4
:1032F000F76E000EF86E0800F550640AD8B40FD0CF
:103300004950D96EDA6A6F007FFFF6FF200EF76E24
:10331000000EF86E0800F550690AD8A436D049505E
:10332000D96EDA6ADF2A4A50D96EDA6ADF50DF2AAC
:10333000DF2AD96EDA6A6F0078FF4BF06F0074FFF6
:103340004CF0000E4CBEFF0E4D6E4E6E4F6E506E2A
:10335000516E526E47C023F048C024F04BC025F098
:103360004CC026F04DC027F04EC028F04FC029F0C9
:1033700050C02AF051C02BF052C02CF017EC17F0BF
:1033800023C047F024C048F012004950D96EDA6AD1
:103390006F007FFFF6FF200EF76E000EF86E08003C
:1033A000F550730AD8A421D04950D96EDA6ADF2AC1
:1033B0004A50D96EDA6A020EDF26DF5CD96EDA6A0D
:1033C0006F0078FF53F06F0078FF54F047C011F0A2
:1033D00048C012F053C013F054C014F039EC1AF086
:1033E00011C047F012C048F012004950D96EDA6A95
:1033F0006F007FFFF6FF200EF76E000EF86E0800DC
:10340000F550250AD8A413D04950D96EDA6ADF2ABC
:10341000000E096E250E086E47C00AF048C00BF07A
:1034200025EC1FF0000E486E010E476E1200495049
:10343000D96EDA6ADF2A000E486E000E476E12005F
:103440004950D96EDA6A6F007FFFF6FF200EF76EE3
:10345000000EF86E0800F550086E096A47C00AF0C1
:1034600048C00BF025EC1FF04950D96EDA6ADF2A0C
:10347000D9D720EE9EF110EE16F0060E6F006FFF0A
:10348000E3FFE806FBE213C021F014C022F0215054
:103490002210D8A403D0160E216E226A21C006F095
:1034A00022C007F0CEEC22F006C025F007C026F0BF
:1034B0009CC023F09DC024F024BE0ED02550235C78
:1034C0002450800A156E2650800A1558D8B004D0B2
:1034D00023C025F024C026F025C023F026C024F008
:1034E0008CC11FF08DC120F056A00DD016D0000E5B
:1034F000096E200E086E11C00AF012C00BF025EC08
:103500001FF0254A262A1F50255C2650800A156E7A
:103510002050800A1558D8A0EAD7000E1E6E000E63
:103520001D6E23D0600087F0F6FF60008BF0F7FF80
:10353000000EF86E1F0EF76403D00800F55007D098
:103540006F00DBFFE1FF6F00DFFFE2FFE750156E6A
:103550001550086E096A11C00AF012C00BF025EC74
:103560001FF0214A222A1D4A1E2A23501D5C1E508C
:10357000800A156E2450800A1558D8A0D3D756B0AB
:103580000DD016D0000E096E200E086E11C00AF084
:1035900012C00BF025EC1FF0254A262A1F50255C8F
:1035A0002650800A156E2050800A1558D8A0EAD7F8
:1035B00025C011F026C012F01200000E176E15AED5
:1035C00012D0151E141E131E121E111E101E0F1EC9
:1035D0000E6C000E0F22102211221222132214222E
:1035E0001522010E176E0DAE12D00D1E0C1E0B1EF5
:1035F0000A1E091E081E071E066C000E072208225E
:1036000009220A220B220C220D22010E171A20EE8B
:1036100018F0070EDE6AE806FDE20E500F101010DB
:1036200011101210131014101510D8B446D0010E3A
:10363000166E0AD0D8900E360F3610361136123666
:10364000133614361536162A15AEF4D7D890183618
:1036500019361A361B361C361D361E361F360E50CE
:10366000065C0F5007581050085811500958125056
:103670000A5813500B5814500C5815500D58D8A018
:1036800011D00E50065E0F50075A1050085A1150B4
:10369000095A12500A5A13500B5A14500C5A15500A
:1036A0000D5A1880D890153214321332123211325A
:1036B00010320F320E32162EC9D71750D8B410D090
:1036C0001F1E1E1E1D1E1C1E1B1E1A1E191E186CE0
:1036D000000E19221A221B221C221D221E221F222A
:1036E00018C006F019C007F01AC008F01BC009F096
:1036F0001CC00AF01DC00BF01EC00CF01FC00DF066
:1037000012000E6E0E50D8A409AE1AD006C00AF0F0
:1037100007C00BF008C00CF009C00DF00A1E0B1E0C
:103720000C1E0D1E0A2A000E0B220C220D220AC0AE
:1037300010F00BC011F00CC012F00DC013F008D047
:1037400006C010F007C011F008C012F009C013F055
:103750000650071008100910D8A409D0000E066EF4
:10376000000E076E000E086E000E096E1200960E17
:103770000F6E06D00F2AD890133212321132103247
:10378000000E10140A6E000E11140B6E000E1214AF
:103790000C6EFE0E13140D6E0A500B100C100D1053
:1037A000D8B40DD0E7D70F2A010E1026000E112233
:1037B00012221322D8901332123211321032000E1C
:1037C00010140A6E000E11140B6E000E12140C6E03
:1037D000FF0E13140D6E0A500B100C100D10D8B400
:1037E00007D0E1D70F06D8901036113612361336AF
:1037F00012BE03D0020E0F60F5D70FA0129ED89014
:103800000F320FC00AF00B6A0C6A0D6A0AC00DF085
:103810000C6A0B6A0A6A0A5010120B5011120C50F3
:1038200012120D5013120E50D8A409AE01D0138EEF
:1038300010C006F011C007F012C008F013C009F064
:103840001200000E176E0DAE12D00D1E0C1E0B1EB8
:103850000A1E091E081E071E066C000E07220822FB
:1038600009220A220B220C220D22010E176E15AE20
:1038700010D0151E141E131E121E111E101E0F1E18
:103880000E6C000E0F22102211221222132214227B
:1038900015220E500F1010101110121013101410CA
:1038A0001510D8B43CD0010E166E0AD0D8900E3642
:1038B0000F36103611361236133614361536162AD0
:1038C00015AEF4D70E50065C0F500758105008582C
:1038D0001150095812500A5813500B5814500C58D4
:1038E00015500D58D8A010D00E50065E0F50075A34
:1038F0001050085A1150095A12500A5A13500B5AB4
:1039000014500C5A15500D5AD890153214321332E7
:103910001232113210320F320E32162ED3D7175008
:10392000D8B410D00D1E0C1E0B1E0A1E091E081E38
:10393000071E066C000E0722082209220A220B220B
:103940000C220D2206C006F007C007F008C008F0E0
:1039500009C009F00AC00AF00BC00BF00CC00CF053
:103960000DC00DF012000101D25100017A5D01017C
:10397000D35100017B59D8B004D0D2C17AF0D3C161
:103980007BF0D8C11AF0D9C11BF0DAC11CF0DBC141
:103990001DF00101D25100017A5D7C6F0101D3510C
:1039A00000017B597D6F7CC006F07DC007F0086A7E
:1039B000096A000E81EC1BF006C016F007C017F074
:1039C00008C018F009C019F028EC10F016C074F007
:1039D00017C075F018C076F019C077F014EC1EF01F
:1039E00074C0DEF175C0DFF1000E676F010E666F07
:1039F000000E656F000E646F0101D151066E000E5E
:103A000006BEFF0E076E086E096E010E81EC1BF0FC
:103A100006C060F007C061F008C062F009C063F042
:103A2000EFEC15F060C074F061C075F062C076F024
:103A300063C077F014EC1EF074517C6F7D6B7CBF1B
:103A40007D070101DE5100017C270101DF510001EA
:103A50007D23810E7C250101DE6FFF0E00017D219B
:103A60000101DF6F12004C0E0001646F480E656F9C
:103A70006551D8A4200E666FC9EC26F0000E0C6EBE
:103A8000050E0B6E7DEC25F04C0E0001646F380EB8
:103A9000656F6551D8A4200E666FC9EC26F0030E41
:103AA0000C6E200E0B6E7DEC25F04C0E0001646F49
:103AB0003C0E656F6551D8A4200E666FC9EC26F0E8
:103AC000000E0C6E050E0B6E7DEC25F04C0E000109
:103AD000646F400E656F6551D8A4200E666FC9EC07
:103AE00026F0000E0C6E050E0B6E7DEC25F04C0ED4
:103AF0000001646F440E656F6551D8A4200E666F97
:103B0000C9EC26F0000E0C6E050E0B6E7DEC25F058
:103B1000010E0101B66F92EC27F00009D8A460EC09
:103B200023F0010E0101B56F000EB76F000EB96FE3
:103B3000000EC16F000EC06F3B0E23EC27F0000E8D
:103B4000076E0A0E066E030E3CEC25F0120096C1BD
:103B500006F097C107F098C108F099C109F09AC121
:103B60000AF09BC10BF09CC10CF09DC10DF02D0E15
:103B70000E6E7F0E0F6E950E106E4C0E116E2D0E8A
:103B8000126EF40E136E510E146E580E156E08EC74
:103B900021F006C020F007C021F008C022F009C0C3
:103BA00023F00AC024F00BC025F00CC026F00DC095
:103BB00027F0010E20240101966F000E2120976F3F
:103BC000000E2220986F000E2320996F000E2420F3
:103BD0009A6F000E25209B6F000E26209C6F000E12
:103BE00027209D6F96C120F097C121F098C122F047
:103BF00099C123F09AC124F09BC125F09CC126F005
:103C00009DC127F0320E09D0D890273226322532B6
:103C100024322332223221322032E82EF5D720C03E
:103C20001EF022C01FF01200000176357735796F43
:103C30007951D8A409D0000E746F000E756F000E74
:103C4000766F000E776F120074C052F075C053F09B
:103C500076C054F077C055F0200E05D0D89055327C
:103C6000543253325232E82EF9D75250786F768F51
:103C7000FF0E7417FF0E7517FF0E7617000E7717DD
:103C8000960E795F79AF0DD07951800A970FD8A041
:103C9000D2D7D8907733763375337433793FF9D7E9
:103CA0000DD01F0E796507D0C6D7D89074377537F9
:103CB0007637773779077951D8A4F7D77851D8B4C0
:103CC00008D0771F761F751F746D000E752376233D
:103CD000772374C074F075C075F076C076F077C045
:103CE00077F012009397A40E066E3F0E076E000E3B
:103CF000086E55EC27F09399820E066E490E076EFA
:103D0000000E086E4EEC27F0000E3D01EC6F000E29
:103D1000ED6F000EEE6F000EEF6F000EF06F000EF5
:103D2000F16F900EF26F800EF36F000EF46F400E85
:103D3000F56F030EF66F000EF76F000EF86F000EB2
:103D4000F96F000EFA6F400E066E4F0E076E000EF2
:103D5000086E63EC27F03E0E066E4F0E076E000EE7
:103D6000086E5CEC27F02A0E066E4F0E076E000EF2
:103D7000086E6AEC27F0000E0101956F000E00013D
:103D8000AB6F000EAA6F080EA96F000E5A6E000EE0
:103D9000A86F000EA76F390193871200390196951D
:103DA000420E066E400E076E000E086E32EC27F0D3
:103DB0009697B40E066E490E076E000E086E2BEC39
:103DC00027F0000E3D01D46F000ED66F000ED86FA5
:103DD000B00EDA6F800EDB6F000EDC6F400EDD6F11
:103DE000030EDE6F000EDF6F000EE06F000EE16F5E
:103DF000000EE26F440E066E4F0E076E000E086E48
:103E000040EC27F0420E066E4F0E076E000E086E55
:103E100039EC27F0300E066E4F0E076E000E086E5E
:103E200047EC27F0000E0101946F000E0001A66F11
:103E3000000EA56F080EA46F000E596E000E586E8E
:103E4000000EA36F3901968512000A500B10D8B4EA
:103E500004D00A500B10D8A404D0085086EC27F0E8
:103E6000120020EE04F00A50D9260B50DA22DE5060
:103E7000DE10D8B416D020EE04F00A50D9260B502C
:103E8000DA2210EE02F00A50E1260B50E222DE5058
:103E9000E65CE650800A106EDE50800A1058D8B0FA
:103EA000120020EE02F00A50D9260B50DA226F00E1
:103EB00078FF0CF06F0074FF0DF060002BF0D9FF5D
:103EC00060002FF0DAFF6F0078FF0EF06F0074FFD4
:103ED0000FF00C500E24D96E0D500F20DA6E6000DA
:103EE00023F0DFFF20EE02F00A50D9260B50DA2231
:103EF000DE2A000EDD221200010EBE6E020EBD6E25
:103F0000000EBA6E000EBB6E060EBC6E060EC66EBE
:103F1000C268BF0EC36E910EC46EFD0EC56EFD0E5F
:103F20003A01706F000E606F3F0E506F060E806F8B
:103F30004069000E716F000E816F000E516F000E10
:103F4000416F000E616F000E5A6F000E5B6F000E26
:103F50006A6F000E6B6F000E7A6F000E7B6F000EA3
:103F6000826F000E426F000E526F000E626F000EE5
:103F7000726F4369536963697369070E836F0F0E2C
:103F8000E86F130EDE6F160E0E6F1E0E136F100EFF
:103F9000196F1F0E156F130E166F170EE56F140EA7
:103FA000DF6F12004A0E5A24D96EDA6A010EDA2245
:103FB000000EDF6E3D01F9A714D04A0E5A24D96EC7
:103FC000DA6A010EDA220101DF8201D80AD0050087
:103FD000FA6E7B51FD6E7C51FE6E7D51FF6EFA5084
:103FE00012003D01F9A314D04A0E5A24D96EDA6AA0
:103FF000010EDA220101DF8401D80AD00500FA6E31
:104000007851FD6E7951FE6E7A51FF6EFA501200B2
:104010004A0E5A24D96EDA6A010EDA22DF50D8B479
:104020000DD001D812000500FA6E01017551FD6E28
:104030007651FE6E7751FF6EFA501200DCEC25F0DF
:104040001200320E5924D96EDA6A010EDA22000EFD
:10405000DF6E3D01E1A714D0320E5924D96EDA6A21
:10406000010EDA220101DF8201D80AD00500FA6EC2
:104070007251FD6E7351FE6E7451FF6EFA50120054
:104080003D01E1A314D0320E5924D96EDA6A010E33
:10409000DA220101DF8401D80AD00500FA6E6F51DF
:1040A000FD6E7051FE6E7151FF6EFA501200320EAD
:1040B0005924D96EDA6A010EDA22DF50D8B40DD055
:1040C00001D812000500FA6E01016C51FD6E6D51B0
:1040D000FE6E6E51FF6EFA50120012EC26F01200C6
:1040E000196E10B405D0000E156E000E146E03D0BC
:1040F000000E156E146814C013F08FEC27F0116ECB
:1041000011500808186E1950185CD8A018C019F082
:104110009BEC27F0116E11506608186E0F50185C5A
:10412000D8A018C00FF0000E176E1AD0000E166E31
:1041300004D01350A0EC26F0162A0F50165CD8A01D
:10414000F8D70F50116E126A111E121E114A122A50
:1041500011C00CF012C00DF0010E92EC26F0172ADF
:104160001950175CD8A0E2D7000E0D6E000E0C6E31
:104170001950000892EC26F0120056A00AD01AC07E
:1041800011F01BC012F018C013F019C014F058EC55
:1041900024F01DBE05D01CC021F01DC022F004D0AB
:1041A000000E226E000E216E000E206E000E1F6E9D
:1041B0000CD0000E096E200E086E18C00AF019C04F
:1041C0000BF025EC1FF01F4A202A21501F5C2050C5
:1041D000800A1E6E2250800A1E58D8A0EAD756B018
:1041E0000AD01AC011F01BC012F018C013F019C089
:1041F00014F058EC24F01AC006F01BC007F0CEEC07
:1042000022F021500624186E22500720196E120049
:1042100020EE16F0070EDE6AE806FDE206A010D0DA
:104220000E5016260F501722105018221150192226
:1042300012501A2213501B2214501C2215501D22FA
:10424000D8900E360F361036113612361336143615
:104250001536D8900D320C320B320A320932083240
:104260000732063206500710081009100A100B100A
:104270000C100D10D8A4D2D716C006F017C007F046
:1042800018C008F019C009F01AC00AF01BC00BF0E2
:104290001CC00CF01DC00DF01200010EA6EC25F0A4
:1042A0000009D8B412000101C84BC92B000E00014F
:1042B000646F020E656F010E666FBBC167F0686BBD
:1042C000BCC169F06A6BA3EC23F0400E646F020E70
:1042D000656F120E666FBDC167F0686BDEC169F075
:1042E000DFC16AF0A3EC23F0000E0201506F000E54
:1042F0000E6E000E0F6E020E106E010E58EC26F0C0
:10430000000E0E6E400E0F6E020E106E020E58EC76
:1043100026F0010E076EF40E066E010E3CEC25F041
:104320001200000E0B6E09AE06D0086C091ED8B044
:10433000092A010E0B6E07AE06D0066C071ED8B018
:10434000072A010E0B1A000E0D6E000E0C6E08509F
:104350000910D8B41CD0010E0A6E04D0D8900836CB
:1043600009360A2A09AEFAD7D8900C360D3608500D
:10437000065C09500758D8A005D00850065E0950C1
:10438000075A0C80D890093208320A2EEDD70B500C
:10439000D8B404D00C6C0D1ED8B00D2A0CC006F099
:1043A0000DC007F01200040EF66E470EF76E000EF9
:1043B000F86E00EE9EF110EE42F009006F00D7FF9C
:1043C000EEFFE550E150F9E13A0EF66E4F0EF76E52
:1043D000000EF86E09006F00D4FFACF009006F000A
:1043E000D4FFADF000EE80F2200EEE6AE806FDE1AB
:1043F00000EE00F19E0EEE6AE806FDE100EE9CF094
:10440000100EEE6AE806FDE15A6A596A586A576A60
:10441000566A080ED56E000ED66E000ED76E0001DD
:1044200020EF24F00AC006F00BC007F0CEEC22F01B
:1044300006500C6E000E0D6EBC82BC94400E0C64D7
:104440001FD020EE40F00A50D9260B50DA22000E81
:10445000DF6E400E0C6E14D0090E066E000E076E55
:10446000000E086E000E096E03EC24F00D500A24B5
:10447000D96E000E0B20DA6EDF50BCEC26F00D2A50
:104480000C500D5CD8B01200E7D7400E1BEC27F0A3
:10449000A10E1BEC27F0C00E1BEC27F0A40E1BECAA
:1044A00027F0A60E1BEC27F0A20E1BEC27F02F0E18
:1044B0001BEC27F0270E1BEC27F0810E1BEC27F0DE
:1044C000090E1BEC27F0FA0E1BEC27F0900E1BECEC
:1044D00027F0660E1A6E000E1B6E000E1C6E000E8C
:1044E0001D6E080E84EC26F0AF0E1BEC27F01200B8
:1044F000000E3E01DE6F000EDF6F000EE06F000E5B
:10450000E16F000EE46F000EE56F000EEA6F000E23
:10451000EC6F000EF16F000EF36F000EF46F000EE3
:10452000F56F000EF66F000EF76F000EF96FF40EC8
:10453000FA6F200EFB6F000EFC6F000EFD6F000E79
:10454000FE6F3F0EFF6F840EF86F120062C055F0D1
:10455000000E01018B6F000E8A6F0FD060C047F014
:1045600061C048F0550E496E63C04AF052EC19F034
:10457000475001018A2748508B23600057F1F6FF0E
:10458000200EF76E000EF86E0800F5500009D8A452
:10459000E5D78AC160F08BC161F0120006C008F057
:1045A00007C009F002D0064A072A60001BF0F6FF98
:1045B00060001FF0F7FF000EF86E1F0EF76403D0C7
:1045C0000800F55007D06F00DBFFE1FF6F00DFFF51
:1045D000E2FFE7500009D8A4E6D70850065C066E53
:1045E00009500758076E1200000E9B6E000E9C6E5D
:1045F000010E9D6E630E996EC00E986E98506F00FE
:1046000064FE09F00A6A09C00AF0096A091001018A
:10461000926F0A50936F3901A89D988DAC0E066E6B
:104620004D0E076E000E086E78EC27F0310E9A6E74
:104630001200D28A000ED2BE010E066ED29E550E18
:10464000D46EAA0ED46ED490000E38019F6F000E67
:104650009E6F080E9D6F550ED46EAA0ED46ED48038
:1046600006B002D0D29E01D0D28E390186878685CF
:10467000838983878981888D1200000E331A000E8A
:10468000341A000E351A800E361A2FC006F030C0CC
:1046900007F031C008F032C009F033C00AF034C06E
:1046A0000BF035C00CF036C00DF0D0EC11F006C0A8
:1046B0002FF007C030F008C031F009C032F012000E
:1046C000A351D8B4FDD7320E5824D96EDA6A010E40
:1046D000DA22DF500101946F3A0E5824D96EDA6A5B
:1046E000010EDA22DF50066E582A070E586402D0F7
:1046F000000E586E390196950001A3073901968581
:1047000006501200286E756C6C2900AF01A90100DB
:104710000000000000000000000000000000020097
:10472000000000320000000000000A00000000004D
:1047300001000001010100009001740E0000000062
:104740000000000000FF670E6D6F64C06EF065C072
:104750006FF0000E716F000E706F000E736F000E21
:10476000726F6E0E606F616B66C062F06D0E636F8C
:10477000A6EC22F0000170516425D96E71516521BB
:10478000DA6E000EDF6E1200066E0001A451D8B47E
:10479000FCD7390196B704D060001BF0D2FD12D0CF
:1047A0009697420E0001A625D96EDA6A010EDA222A
:1047B00060001BF0DFFFA62B070EA66502D0000EDF
:1047C000A66FA407390196871200000E036E0350EE
:1047D000020D200EF324D96E010EF420DA6EDE50A5
:1047E000DE10D8B40BD00350020D200EF324D96E86
:1047F000010EF420DA6EDE06000EDD5A032A080EE2
:104800000364E5D71200000E0101626F000E636FB2
:10481000000E646F000E656F00F00400010E0101D0
:104820006227000E6323642365236251065C635193
:1048300007586451085865510958D8A01200ECD7A0
:10484000000E00019B6F74EC24F0D28ED28C000E0F
:104850000101B36F000EB46F000EB66F000EB56F9E
:1048600076EC26F0FF0EA0EC26F0000EA0EC26F071
:10487000AF0E1BEC27F0F6D70A6EBC92BC940A0E62
:10488000066E000E076E000E086E000E096E03EC39
:1048900024F00A50BCEC26F00A0E066E000E076EDD
:1048A000000E086E000E096E03EC24F0BC821200AC
:1048B000000E176E000E166E0BD015C008F0096AB8
:1048C00013C00AF014C00BF025EC1FF0164A172A8B
:1048D00016501124D96E17501220DA6EDF50156E63
:1048E0001550D8B41200E9D719EC23F036EC26F0B5
:1048F0007CEC1FF0AEEC26F08BEC27F025EC25F0DD
:1049000078EC22F067EC26F0F4EC22F0EFEC26F0E5
:10491000CEEC1EF072EC1EF0E3EC26F0120019BE95
:1049200005D0195010E11804D8B00DD018C01AF0F5
:1049300019C01BF01A1E1B1E1A4A1B2A1AC018F097
:104940001BC019F0120018C018F019C019F012009D
:1049500006C008F007C009F0D89009320832D89094
:10496000093208320850616E06C008F0030E0816BE
:10497000060E096ED8900836092EFCD70850606ED6
:104980001200080E0001A96112D05A0EAA25D96E94
:10499000DA6A010EDA22DF503D01EA6F0001AA2B2C
:1049A000070EAA6502D0000EAA6FA92B12003901CA
:1049B00093991200080E0001A46112D0420EA525A1
:1049C000D96EDA6A010EDA22DF503D01D26F0001A2
:1049D000A52B070EA56502D0000EA56FA42B120013
:0649E00039019697120058
:1049E8003901A89D92C104F093C105F024EC26F08A
:1049F8000101904B912B915104E1320E905DD8A0AA
:104A0800110047EC26F0000E0101916F000E906F27
:104A18001100FF0E086EFF0E096E06C00AF007C0EF
:104A28000BF008500A2609500B220AC096F10BC059
:104A380097F10101986B996B9A6B9B6B9C6B9D6BC3
:104A48001200010E966E000E956E000E976E030E04
:104A5800936E000E926E3901A9919981CA0E066E65
:104A6800470E076E000E086E71EC27F0946812006E
:104A78000A6E06C008F007C009F0D8900836093653
:104A88000A50020D200EF324D96E010EF420DA6EBE
:104A9800600023F0DEFF600027F0DDFF12006000F9
:104AA8001BF0D9FF60001FF0DAFFDF50D8B40AD03E
:104AB80060001BF0D9FF60001FF0DAFF000EDF6E08
:104AC800010E1200000E12000B6E0B501F0BB009E6
:104AD8001BEC27F00A500F0B1BEC27F00A380F0BC2
:104AE8000F0B10091BEC27F00AC0A1F00BC0A2F0B5
:104AF80012000BC006F00CC007F0000E3CEC25F0CD
:104B080005D000F000F000F000F00400000EA6EC64
:0A4B180025F00009D8A41200F4D71C
:104B24003901A991010169516A116B11D8B41100BD
:104B340001D811000500FA6E6951FD6E6A51FE6ECE
:104B44006B51FF6EFA501200086E04000850020DFB
:104B5400200EF324D96E010EF420DA6EDE50DE103E
:104B6400D8A402D0010E1200000E120001017E51E1
:104B74007F118011D8B4110001D811000500FA6E1C
:104B84007E51FD6E7F51FE6E8051FF6EFA50120011
:104B94000101815182118311D8B4110001D811008F
:104BA4000500FA6E8151FD6E8251FE6E8351FF6ED7
:104BB400FA501200520E5A24D96EDA6A010EDA2221
:104BC4006F00A3F7DFFF5A2A070E5A6402D0000EC3
:104BD4005A6E0001A72B1200010184518511861120
:104BE400D8B4110001D811000500FA6E8451FD6E8D
:104BF4008551FE6E8651FF6EFA50120001018751F5
:104C040088118911D8B4110001D811000500FA6E79
:104C14008751FD6E8851FE6E8951FF6EFA50120065
:104C24003A0E5924D96EDA6A010EDA226F0043F77C
:104C3400DFFF592A070E596402D0000E596E000195
:104C4400A32B12009AA409D09A90600017F099FF40
:104C5400600013F098FF9A801200600017F099FF2B
:104C6400600013F098FF1200000EC06F000EC16FB9
:104C7400000EC26F000EC36F000EC46F000EC56F2E
:104C8400000EC66F000EC76F1200665167116811DF
:104C9400D8B4120001D812000500FA6E6651FD6EF8
:104CA4006751FE6E6851FF6EFA501200116E11507A
:104CB400100DF3500E24800F3CEC24F00FC00AF0CA
:104CC40010C00BF012EC22F01200010EAE6E000EBA
:104CD400AD6E000EAF6E630EAB6E000EAA6E3901A0
:104CE400A495C00EAC6E1200BC84300E066E570E36
:104CF400076E050E086E000E096E03EC24F045ECF9
:104D040022F012001E6E1DC00AF01C5068EC25F043
:104D14001AC00FF01BC010F01E5070EC20F01200EF
:104D24000E6E0CC006F00DC007F006EC27F00A6EFC
:104D34000E50FBEC26F068EC25F012000A6EBC94D1
:104D4400BC820A50BCEC26F0BC84000E076E010E37
:104D5400066E06EC27F01200200E3901D96F000E02
:104D6400DB6F000EDD6F080EDF6F000EDE6FDCB14F
:104D74001200FDD7066E010E3D01126F60001BF09C
:104D840011FD3901A2A9FDD73D0110511200650E94
:104D9400696F000E606F000E616F64C062F0690E8F
:104DA400636FA6EC22F01200BEA002D0010E01D067
:104DB400000EFF0A046EBE500418FE0B0418BE6EEB
:104DC4001200200E3D01156F030E166F040E196FAD
:104DD400000E1C6F820E146F1200800E626E310E74
:104DE400616EC00E606E3F015F513F0B40095F6F03
:104DF4001200066EA2C007F006500726070E07161B
:104E040007C0A2F007501200A1C008F0096A0650BA
:104E140008260750092208C0A1F008501200F051DA
:104E2400096E086AEF510824066E000E0920076E09
:104E34001200076EBC94BC920750BCEC26F0BC84F4
:104E44001200066E60001BF0F1FE3E01F88FF8813F
:104E5400120006C084F107C085F108C086F1120073
:104E640006C087F107C088F108C089F1120006C0A6
:104E74006FF107C070F108C071F1120006C072F141
:104E840007C073F108C074F1120006C06CF107C0CA
:104E94006DF108C06EF1120006C07EF107C07FF10B
:104EA40008C080F1120006C081F107C082F108C079
:104EB40083F1120006C078F107C079F108C07AF1D5
:104EC400120006C07BF107C07CF108C07DF112001E
:104ED40006C075F107C076F108C077F1120006C06C
:104EE40069F107C06AF108C06BF1120006C066F1EF
:104EF40007C067F108C068F112003E01F8B102D0A2
:104F0400010E1200000E1200076E0750C4EC23F0CD
:104F14001200AF0E3E01C16F12000001A251120037
:104F24000001A3511200DCEC25F0120012EC26F073
:104F34001200A151120001FF110012001200120010
:024F4400120059
:020000040020DA
:10000000FF0FFF0FFF0FFF0FFF0FFF0FFF0FFF0F80
:020000040030CA
:0A000000AFFFFFFF9FFFFFFFFFFFB0
:00000001FF
