:020000040000FA
:0600000000F051EF00F0DA
:100008006082D9CF3CF0DACF3DF09EAA1FD0AECFA8
:1000180021F0ABB202D0ABA40DD0000E216EAB988C
:10002800AB881D2A1D043B6E030E3B640FD0000EE7
:100038001D6E0CD00D50220FD96EDA6A21C0DFFF79
:100048000D2A130E0D6402D0000E0D6E9EA00BD06B
:100058009E90F60ECF6E600ECE6E010E0126000E3B
:10006800022203220422F2A40ED0F294670ED76E65
:10007800E80ED66E010E0526000E0622072208227B
:10008800092A23EC02F09EB29E929EB49E943DC033
:10009800DAFF3CC0D9FF609211000AEF03F06AD181
:1000A80079EC03F0010E206E1EC01FF01E2A030E0D
:1000B8001E6425D0000E1E6E22D0220E4D6EDE0E5E
:1000C8004E6E1F0E4F6E000E516E060E506E44ECB3
:1000D80003F04DC01BF04EC01CF01200220E4D6EF6
:1000E800E40E4E6E1F0E4F6E000E516E060E506ED1
:1000F80044EC03F04DC01BF04EC01CF012001F5022
:10010800526E536A5350000AD8A4E8D75250000AD6
:10011800D8B4E4D7010AD8B4D0D7E0D7000ECBECD6
:1001280002F043504210411004E1020E405CD8A096
:10013800120089828980000E0C6E000E0D6E020E70
:10014800206E6EEC03F01200000EABEC02F0435090
:100158004210411004E1040E405CD8A01200ACA289
:10016800FED70C50220FD96EDA6ADF50AD6E0C2A1A
:100178000C50526E536A1B50525C1C505358D8A0F6
:10018800EED7ACA2FED7030EDBD7000EABEC02F025
:1001980043504210411004E1040E405CD8A0120004
:1001A80089908992D8D0000E1C6E090E1B6E080E1D
:1001B8000D6437D02204D8A434D0030E2318D8A451
:1001C80030D0220E406E000E426E070E416E5EEC7D
:1001D80002F040C056F041C057F02950526E2A50E4
:1001E800586E52C059F05850561818E159505718BF
:1001F800D8A414D02550536E526A26505224546EF7
:10020800000E5320556E54505510D8B406D000F047
:1002180089840A0E5DEC03F001D08994000E206EEB
:100228001200000EABEC02F04350421006E1D10E72
:10023800405C070E4158D8A01200000E206E899429
:10024800000E1E6E1200000E1C6E070E1B6E060EB0
:100258000D6467D02204D8A464D0030E2318D8A450
:1002680060D0220E406E000E426E050E416E5EECAE
:1002780002F040C056F041C057F02750526E285047
:10028800586E52C059F0585056183AE159505718FC
:10029800D8A436D026C05AF05A50D8B42BD05A50C9
:1002A8005DEC03F00CD05C0E29D07A0E27D0960EA8
:1002B80025D0B10E23D0CD0E21D0E60E1FD05A5036
:1002C800526E536A5350000AD8A4EDD75250010A0F
:1002D800D8B4E9D7030AD8B4E8D7010AD8B4E7D71D
:1002E800070AD8B4E6D7010AD8B4E5D7030AD8B4C0
:1002F800E4D7D9D7FF0E5DEC03F03D0E5F6E09D051
:10030800010E1726000E182219221A22000E5DEC83
:1003180003F05FC00EF00EC040F0416A27EC03F016
:100328007DD7000EABEC02F04350421006E1D10E2F
:10033800405C070E4158D8A01200000E5DEC03F097
:10034800000E206E0E680EC040F0416A27EC03F0E4
:10035800000E1E6E12001F50526E536A5350000A50
:10036800D8A471D75250000AD8B46DD7010AD8B4AE
:100378001AD769D72050526E536A5350000AD8A42E
:1003880012005250000AD8B48BD6010AD8B4C6D687
:10039800030AD8B4D9D6010AD8A41200F6D60B9607
:1003A8008A941C0ED018D8A40B86FCBE02D0FCACD4
:1003B80003D00B86FC9EFC9C0BB68A847F0EC16E14
:1003C800D08E0C0E926E120E936EF19E8A908994C6
:1003D800000E096E000E5DEC03F0850ED56E670EFB
:1003E800D76EE80ED66EA50ECD6EF60ECF6E600EE9
:1003F800CE6E0C0EBD12CA94410ECB6ECA840E6826
:100408000EC040F0416A27EC03F0000EAC6E000EFF
:10041800AB6E9D8A9D98AC98AB889E989E9AAA963A
:10042800AC94000EB06E400EAF6EAC8AAB8EF28A02
:10043800F1849D809F808CEC03F0F28E12000A28D4
:10044800D8A405D08A80000E096E0B9012000A50BD
:10045800D8B403D00A0E0A6402D08A90F4D7080EE2
:10046800096412000A50366E376AD8903636373625
:10047800080E3626000E37220950386E396A365073
:10048800385C3950800A3A6E3750800A3A58D8A0FA
:1004980004D0000E096E8A90D8D78AA002D0010E27
:1004A80001D0000EFF0A366E8A503618FE0B361839
:1004B8008A6E1200466847681AD04050D96EDA6AC8
:1004C800DF504618456E402AAD0E4524F66EF76A91
:1004D8001E0EF7220800F5504718466EAD0E45244B
:1004E800F66EF76A1D0EF7220800F5CF47F04106B1
:1004F800D8A042064128E1E14228D8A4DED74650D8
:10050800436E4750406E43C041F0120048C040F06F
:1005180049C041F04AC042F05EEC02F040C04BF0E6
:1005280041C04CF048504924D96EDA6A4CC0DFFF0C
:10053800494A4A2A48504924D96EDA6A4BC0DFFF33
:10054800494A4A2A49C048F04AC049F01200446E54
:100558004450D8B409D00FC040F010C041F011C0C9
:1005680042F012C043F01200F29E01C00FF002C028
:1005780010F003C011F004C012F0F28E0FC040F06A
:1005880010C041F011C042F012C043F01200446E96
:100598004450D8B409D013C040F014C041F015C07D
:1005A80042F016C043F01200F29E05C013F006C0D8
:1005B80014F007C015F008C016F0F28E13C040F012
:1005C80014C041F015C042F016C043F0120041C0FB
:1005D80045F042C046F040C048F00FD045C0F6FF95
:1005E80046C0F7FF0800F5CF47F0454A462A48506D
:1005F800D96EDA6A47C0DFFF482A4306D8A0440606
:100608004328ECE14428D8B41200E8D7120EF66E5D
:10061800070EF76E000EF86E00EE5BF010EE05F0B8
:100628000900F5CFEEFFE550E150FAE100EE01F0E8
:10063800350EEE6AE806FDE160906092000EF86EF5
:10064800000184EF03F040C042F041C043F0060EC1
:10065800D89042364336E82EFBD742C044F043C018
:1006680045F045C0BEFF44C042F0D8904232D89011
:100678004232300E4216BD50CF0B4210BD6E1200F2
:100688004DC040F04EC041F04FC042F050C043F062
:1006980051C044F0EBEC02F04DC048F050C049F0B6
:1006A80051C04AF08AEC02F048C04DF049C04EF003
:1006B8001200406E0BB012000A0E406405D04028AC
:1006C800D8B402D0000E406EF29E0B8040C00AF0F3
:1006D800F28E1200F29E000E016E000E026E000EE7
:1006E800036E000E046EF28E1200F29E000E056E6E
:1006F800000E066E000E076E000E086EF28E1200D7
:0F070800D3EC01F053EC00F0FDD7F61FEA1FFF12
:040718000B9212002E
:101DAC000000C0C101C30302C2C60607C705C5C4F3
:101DBC0004CC0C0DCD0FCFCE0E0ACACB0BC9090823
:101DCC00C8D81819D91BDBDA1A1EDEDF1FDD1D1C63
:101DDC00DC14D4D515D71716D6D21213D311D1D0F3
:101DEC0010F03031F133F3F23236F6F737F5353493
:101DFC00F43CFCFD3DFF3F3EFEFA3A3BFB39F9F863
:101E0C003828E8E929EB2B2AEAEE2E2FEF2DEDEC02
:101E1C002CE42425E527E7E62622E2E323E1212032
:101E2C00E0A06061A163A3A26266A6A767A5656432
:101E3C00A46CACAD6DAF6F6EAEAA6A6BAB69A9A8A2
:101E4C006878B8B979BB7B7ABABE7E7FBF7DBDBCE2
:101E5C007CB47475B577B7B67672B2B373B1717072
:101E6C00B0509091519353529296565797559594D2
:101E7C00549C5C5D9D5F9F9E5E5A9A9B5B995958E2
:101E8C0098884849894B8B8A4A4E8E8F4F8D4D4C82
:101E9C008C448485458747468682424383418180B2
:101EAC004000C1814001C0804101C0804100C1811E
:101EBC004001C0804100C1814000C1814001C0800F
:101ECC004101C0804100C1814000C1814001C080FE
:101EDC004100C1814001C0804101C0804100C181ED
:101EEC004001C0804100C1814000C1814001C080DF
:101EFC004100C1814001C0804101C0804100C181CD
:101F0C004000C1814001C0804101C0804100C181BD
:101F1C004001C0804100C1814000C1814001C080AE
:101F2C004101C0804100C1814000C1814001C0809D
:101F3C004100C1814001C0804101C0804100C1818C
:101F4C004000C1814001C0804101C0804100C1817D
:101F5C004001C0804100C1814000C1814001C0806E
:101F6C004100C1814001C0804101C0804100C1815C
:101F7C004001C0804100C1814000C1814001C0804E
:101F8C004101C0804100C1814000C1814001C0803D
:101F9C004100C1814001C0804101C0804100C1812C
:101FAC0040010304000000003985017800000001A5
:101FBC0060000179000000015DC0010302000239DC
:101FCC0085017800000001017900000001312E37F5
:101FDC0000000103012100020103012000015365EF
:101FEC007020203920323032300031303A31353ADD
:041FFC003438000075
:020000040020DA
:08000000FFFFFFFFFFFFFFFF00
:020000040030CA
:0E000000FFC60F1EFF8081FF00C003E003401B
:00000001FF
