:020000040000FA
:0400000081EF00F09C
:10000800E04CE04CE04CE04C4000E04C4000E04C60
:10001800E04CE04CE04CE04CE04CE04CE04CE04C78
:10002800E04C400040004000F94BE04CE04CE04C14
:10003800E04CE04CE04CE04CE04CE04CE04CE04C58
:10004800314C284CE04CE04C40004000E04CE04C87
:10005800E04CE04CE04C4000E04CE04CE04CE04C24
:10006800E04CE04CE04CE04CE04C034CE04CE04C05
:10007800E04CE04CE04CE04C4000E04CE04CE04C04
:100088001F4C164CE04CE04C964BE04CE04CE04CDE
:10009800E04CE04CE04CE04C4000E04C40004000BC
:1000A800E04CE04CE04CE04CE04CE04CE04CE04CE8
:1000B800E04CE04CE04CE04CE04CE04CE04CE04CD8
:1000C800E04CE04CE04CE04CE04CE04CE04CE04CC8
:1000D800E04CE04CE04CE04CE04CE04CE04CE04CB8
:1000E8004000E04CE04CE04C400040004000400044
:0E00F800E04CE04CE04CEF4BFF0054EF8FF07B
:10FEC600000D0D0D0D0D3C2B442529443D2A370010
:10FED6000000000000000000000000556700000060
:10FEE600000000000000005569000000000000004E
:10FEF6000000005553590100FF00000000000055A6
:10FF060045313400000000000000000D0D0D0D0D00
:10FF16003C2B4425443D2A0D0D0D0D0D3C2B44264E
:10FF2600443D2A0324030400554D008740303030F9
:10FF3600303055535800FF000130303055535900CA
:10FF4600FF000130303055535A0001000F30303079
:10FF56005542051400000F303030554531363030EB
:10FF660030303030554E31373030303030305552F9
:10FF760032303030303030300000000000000000F9
:10FF860000000000000000000000000056342E3083
:10FF9600362034375134332056617269616E00550C
:10FFA6005232000000000000000000554E313700BC
:10FFB6000000000000000055420308000000000099
:10FFC60000000025692C25692C25692C25692C251E
:10FFD600690025692C25692C256920256920004E94
:10FFE6006F7620323320323032300031333A3337B5
:09FFF6003A3538002573200000A3
:020000040001F9
:10000000010E06014C27000E4D234E234F23020EF6
:100010000501E219D8B426D028EC99F00009D8B42B
:1000200021D0060158B51ED0E5EC95F0DB6F010E2E
:100030000601DC6F010ED76F010EDB6F460E050166
:10004000DB19D8A405D0010E0601D96F000E5B6F35
:10005000370E0501DB19D8A405D0010E0601DA6FB1
:10006000000E5B6F0501E205D8A4CED021EC99F01B
:100070000009D8B4C9D0010E06015427000E55233B
:1000800056235723C1A202D0010E01D0000EFF0A51
:1000900005018C6F8C47C1508C19FD0B8C19C16EFA
:1000A000C2A402D0010E01D0000EFF0A8C6F8C4753
:1000B0008C47C2508C19FB0B8C19C26EC2A002D0A7
:1000C000010E01D0000EFF0A8C6FC2508C19FE0B7E
:1000D0008C19C26E0601DE51D8B407D0050E5C65DE
:1000E00004D0C19CC19E000EDE6FC4EC95F0DF6FA2
:1000F000000EE025D96EDA6A070EDA2261007CF77D
:10010000DFF46DD0AA0EED6F550EDF19D8B476D09E
:10011000000EE06F73D0000EE06FED51DF19D8A430
:100120006DD0540E07010119D8A44AD0000E060163
:100130005E6F000E5D6F010ED46FA251D8A45ED029
:10014000000E05018C6F100E8D6F07010451050123
:100150008F6F8E6B070103510501906F916B901F9C
:10016000911F904B912B8E51905F8F51915B8C51D1
:1001700090278D519123040E926FD8909133903334
:10018000922FFBD790C59BF691C59CF607010651AF
:1001900005018D6F8C6B0701055105018E6F8F6B0B
:1001A0008C518E278D518F23040E906FD8908F33F2
:1001B0008E33902FFBD78EC59DF68FC59EF61ED031
:1001C000410E0119D8A41AD0000E06015E6F000E70
:1001D0005D6FC280D80EE46FF00EE36F0FD0E02B9E
:1001E000E0058C6F8D6B8D51000AD8A407D08C511F
:1001F000000AD8B487D7090AD8B48DD70501DF51D2
:10020000ED27010E0601DD6F0501E251D8A4BFD133
:1002100021EC99F00009D8B479D1C1A202D0010E25
:1002200001D0000EFF0A8C6F8C47C1508C19FD0B5A
:100230008C19C16EC4EC95F0DF6FDF51C00BC00AA2
:10024000D8B404D00601D451D8B416D0010E06019A
:10025000D46F000E0501A86F000EA96F000EAA6FE3
:10026000000EAB6F000EDE25D96EDA6A060EDA22BA
:1002700061007CF7DFF4DE2B060E0501DE19D8A441
:100280002BD1000EDE6F000EDC6F06010051C00B9B
:10029000C00AD8A403D0010E0501DC6F000E0601D0
:1002A000D46F0551D8B4DCD0010ED56F00C68CF5E3
:1002B0003F0E05018C178C51936F946B01C68CF522
:1002C0003F0E8C178C51956F966B02C68CF53F0EC6
:1002D0008C178C51976F986B03C68CF53F0E8C175B
:1002E0008C51996F9A6B93C58CF594C58DF5060E5C
:1002F000D8908C378D37E82EFBD795518C119B6F9A
:1003000096518D119C6F97C58CF598C58DF5060E8D
:10031000D8908C378D37E82EFBD799518C119D6F73
:100320009A518D119E6F9B51FF089B6F9C51D8A0D5
:10033000E82A0F089C6F9D51FF089D6F9E51D8A021
:10034000E82A0F089E6F140E186EAE0E196E670E17
:100350001A6E3F0E1B6E9BC506F59CC507F5086A15
:10036000096A000E22EC8EF006C514F507C515F5D6
:1003700008C516F509C517F53DEC88F014C52DF52F
:1003800015C52EF516C52FF517C530F522EC90F0E2
:100390002DC59BF52EC59CF5660E186E660E196E62
:1003A000260E1A6E3F0E1B6E9DC506F59EC507F5FF
:1003B000086A096A000E22EC8EF006C514F507C51E
:1003C00015F508C516F509C517F53DEC88F014C5F7
:1003D0002DF515C52EF516C52FF517C530F522ECF0
:1003E00090F02DC59DF52EC59EF59BC58CF59CC541
:1003F0008DF5040E05018E6FD8908D338C338E2FC2
:10040000FBD78CC59BF58DC59CF59DC58CF59EC510
:100410008DF5040E8E6FD8908D338C338E2FFBD7D5
:100420008CC59DF58DC59EF59BC560F69DC561F695
:1004300006016045E846030B030BC00F6F6F605168
:100440003F0B800F706F6145E846030B030B400FB5
:10045000716F61513F0B726F000E736F0F0E746FEF
:100460000551D8A40ED0010ED66FC00E6F6F800E4E
:10047000706F400E716F000E726F000E736F000E82
:10048000746FD551D8A403D0D651D8B425D0050166
:10049000DC51D8B410D0000EDD6F6F0EDD25D96EA3
:1004A000DA6A060EDA22DF5006EC99F00501DD2B40
:1004B000050EDD65F2D7010E0601D76F000ED86F6D
:1004C000000E5A6FC280D651D8B406D0000ED56F38
:1004D000000ED66F000ED46F0C0E0501DE6509D03C
:1004E000000EDE6F000E0601D46F000ED56F000EF9
:1004F000D66FC2B004D005018C6B8C2B02D00501E5
:100500008C6BC2508C19FE0B8C19C26E020EE21954
:10051000D8A43DD021EC99F00009D8B420D0C4EC87
:1005200095F0DF6FDF5106EC99F0C2B004D0050101
:100530008C6B8C2B02D005018C6BC2508C19FE0B7E
:100540008C19C26EC1A202D0010E01D0000EFF0AAA
:100550008C6F8C47C1508C19FD0B8C19C16E28EC27
:1005600099F00009D8B413D0E5EC95F0DF6FDF51B6
:1005700010EC99F0C2B004D005018C6B8C2B02D02A
:1005800005018C6BC2508C19FE0B8C19C26E060EC5
:10059000B6EC97F00009D8B41200000E0501706F98
:1005A0000A0E716FC90E726FFF0E736FE1C674F59C
:1005B000E2C675F5E3C576F5776BE2C578F5796B3C
:1005C00050C67AF551C67BF552C67CF553C67DF50B
:1005D00048C67EF549C67FF54AC680F54BC681F50B
:1005E000E2EC94F0000E1A6E000E1B6E0A0E1C6EEA
:1005F000030EADEC93F0000E0501706F0A0E716FE3
:10060000D80E726FFF0E736FE0C574F5756BDCC6A4
:1006100076F5776BDDC678F5796B54C67AF555C6F5
:100620007BF556C67CF557C67DF5E2EC94F0000EDE
:100630001A6E000E1B6E0A0E1C6E000EADEC93F0CF
:10064000010E076EF40E066E060E44EC97F01200D3
:10065000000E0801C86F000EC96F800ECA6F3F0EF2
:10066000CB6F000ECC6F000ECD6F800ECE6F3F0EA5
:10067000CF6FC70EC06F4B0EC16FF70EC26F3E0E2D
:10068000C36F5C0EC46F8F0EC56FC20EC66F3E0E79
:10069000C76F45EC96F0A80E066E310E076E010E80
:1006A000086E83EC99F0000E0601E06F000EDF6F1C
:1006B000000EE46F000EE36FCEA804D0000EE26FD0
:1006C000000E03D0000EE26F010EE16FCEA402D047
:1006D000010E01D0000E0501E26FCEA003D0000E86
:1006E000E36F04D0010EE36F020EE26FC19EC19C66
:1006F000000E0601446F000E456F000E466F000E9F
:10070000476F000EDE6F010EA26FD68ED68C9EEC68
:1007100099F0848F73EC92F0000E0501706F0A0E51
:10072000716FFA0E726FFF0E736F920E746FFF0E81
:10073000756FE2EC94F0000E1A6E000E1B6E0A0E3E
:100740001C6E000EADEC93F0000E0501706F0A0EEA
:10075000716FFA0E726FFF0E736FE50E746FFF0EFE
:10076000756FE2EC94F0000E1A6E000E1B6E0A0E0E
:100770001C6E010EADEC93F0000E0501706F0A0EB9
:10078000716FFA0E726FFF0E736FF10E746FFF0EC2
:10079000756FE2EC94F0000E1A6E000E1B6E0A0EDE
:1007A0001C6E020EADEC93F0010E076EF40E066E99
:1007B000060E44EC97F00501E251D8A428D0740E3F
:1007C0000A6EFF0E0B6E06EC93F0600E066EAE0E18
:1007D000076E0A0E086E000E096EA2EC96F02E0E41
:1007E0000A6EFF0E0B6E06EC93F0560E0A6EFF0EAD
:1007F0000B6E06EC93F0600E0A6EFF0E0B6E06ECAD
:1008000093F06A0E0A6EFF0E0B6E06EC93F0050174
:10081000E205D8A4C6D1000E0601DC6F000EDD6F24
:1008200090EC94F0030E076EE80E066E050E44EC95
:1008300097F000EC80F0200E0601E32505019F6F84
:100840004E0E0601E4210501A06FA16BA0BFA10718
:10085000A151A26FA8C5A3F5A9C5A4F5AAC5A5F580
:10086000ABC5A6F5A82B000EA923AA23AB239F5145
:10087000A35DA051A459A151A559A651800AA76F03
:10088000A251800AA759D8A033D0C2B003D09F6B21
:100890009F2B02D005019F6BC2509F19FE0B9F1921
:1008A000C26E1E0E06015C650BD00501E151D8B485
:1008B00007D0000EE16FC19CC19E000E0601DE6FE5
:1008C000050EB6EC97F00009D8B409D006015C2BF0
:1008D000030E076EE80E066E050E44EC97F0000E50
:1008E0000501A86F000EA96F000EAA6F000EAB6F76
:1008F00049EC93F00601D951D8B411D1D451D8B4F0
:1009000000D1C2A202D0010E01D0000EFF0A0501E3
:100910009F6F9F47C2509F19FD0B9F19C26EFE0E1D
:1009200006EC99F00501E351D8A471D0010E06013F
:10093000A26F9BC606F59CC607F5086A096A000EF9
:1009400022EC8EF006C514F507C515F508C516F599
:1009500009C517F5C0C818F5C1C819F5C2C81AF5F8
:10096000C3C81BF53DEC88F014C5D0F815C5D1F807
:1009700016C5D2F817C5D3F89DC606F59EC607F56D
:10098000086A096A000E22EC8EF006C514F507C548
:1009900015F508C516F509C517F5C4C818F5C5C875
:1009A00019F5C6C81AF5C7C81BF53DEC88F014C583
:1009B000D4F815C5D5F816C5D6F817C5D7F8000E62
:1009C0000601A26FD0C82DF5D1C82EF5D2C82FF5DB
:1009D000D3C830F522EC90F02D500801D86FD8C85C
:1009E00000F6D85106EC99F0D4C82DF5D5C82EF5EF
:1009F000D6C82FF5D7C830F522EC90F02D5008015D
:100A0000D86FD8C801F6D85106EC99F06BD0060122
:100A10000051066E076A086A096A000E22EC8EF021
:100A200006C514F507C515F508C516F509C517F56A
:100A3000C8C818F5C9C819F5CAC81AF5CBC81BF536
:100A40003DEC88F014C5D0F815C5D1F816C5D2F81C
:100A500017C5D3F8D0C82DF5D1C82EF5D2C82FF5BB
:100A6000D3C830F522EC90F02D500801D86FD85142
:100A700006EC99F006010151066E076A086A096AD8
:100A8000000E22EC8EF006C514F507C515F508C555
:100A900016F509C517F5CCC818F5CDC819F5CEC897
:100AA0001AF5CFC81BF53DEC88F014C5D4F815C570
:100AB000D5F816C5D6F817C5D7F8D4C82DF5D5C8BA
:100AC0002EF5D6C82FF5D7C830F522EC90F02D5072
:100AD0000801D86FD85106EC99F0000E0601E06FBE
:100AE000000EDF6FFF0E06EC99F0010E06014427A1
:100AF000000E452346234723000ED46F000ED96F06
:100B00000ED0F50E06EC99F0FF0E06EC99F0010EF2
:100B100006015027000E512352235323EFD7DA51F9
:100B2000D8B43DD0000E0801C86F000EC96F800E0A
:100B3000CA6F3F0ECB6F000ECC6F000ECD6F800ED4
:100B4000CE6F3F0ECF6F0501E351D8B403D03D0EF9
:100B500010EC99F0F40E06EC99F00601E151E21167
:100B6000D8A406D0770E06EC99F05F0E06EC99F04B
:100B70000601E105E211D8A406D0710E06EC99F049
:100B8000590E06EC99F0FF0E06EC99F0010E0601E5
:100B90004827000E49234A234B23000EDA6F040036
:100BA00048D6E251D8A431D000EC80F0A8C59FF51A
:100BB000A9C5A0F5AAC5A1F5ABC5A2F50501A82B4D
:100BC000000EA923AA23AB23A2BF1DD0A251A111BD
:100BD00006E1A80E9F5D610EA059D8A014D0C2B046
:100BE00003D09F6B9F2B02D005019F6BC2509F19B2
:100BF000FE0B9F19C26E000EA86F000EA96F000EAB
:100C0000AA6F000EAB6F0400CFD7020EE219D8A472
:100C100031D000EC80F0A8C59FF5A9C5A0F5AAC504
:100C2000A1F5ABC5A2F50501A82B000EA923AA23A7
:100C3000AB23A2BF1DD0A251A11106E1980E9F5D6A
:100C40003A0EA059D8A014D0C2B003D09F6B9F2BEE
:100C500002D005019F6BC2509F19FE0B9F19C26EF7
:100C6000000EA86F000EA96F000EAA6F000EAB6FEA
:100C70000400CFD700EC80F0FDD7FF00FF00FF009D
:100C8000FF00FF00FF00FF00FF0000000000000069
:100C90000000000000000000000000000000000054
:100CA0000000000000000000000000000000000044
:100CB0000000000000000000000000000000000034
:100CC0000000000000000000000000000000000024
:10107000000000000000000000001750800B206EF0
:1010800017501724226E16BE22802250D8B40DD0DD
:101090002228D8A408D0000E146E000E156E000E83
:1010A000166E000E176E168E08D0000E146E000E0F
:1010B000156E000E166E000E176E1B50800B201A58
:1010C0001B501B24216E1ABE21802150D8B40DD094
:1010D0002128D8A408D0000E186E000E196E000E3C
:1010E0001A6E000E1B6E1A8E08D0000E186E000EBF
:1010F000196E000E1A6E000E1B6E2150D8B403D06C
:101100002250D8A409D0000E146E000E156E000EE9
:10111000166E000E176E12001A5014026100CCF306
:101120002BF56100D0F32CF52B50236E246A256A31
:10113000266A2C50276E286A296A2A6A19501502D5
:101140006100CCF32BF56100D0F32CF52B50232656
:10115000000E2422252226222C502726000E28228B
:1011600029222A22185016026100CCF32BF56100C7
:10117000D0F32CF52B502326000E242225222622E4
:101180002C502726000E282229222A2225C526F5A2
:1011900024C525F523C524F5236A185015026100DE
:1011A000CCF32BF56100D0F32CF52B5023262C50DB
:1011B0002422000E2522000E26221950140261005E
:1011C000CCF32BF56100D0F32CF52B5023262C50BB
:1011D0002422000E2522000E262225C526F524C530
:1011E00025F523C524F5236A185014026100CCF3B9
:1011F0002BF56100D0F32CF52B5023262C50242204
:10120000000E2522000E26221A5015026100CCF392
:101210002BF56100D0F32CF52B5027262C502822DB
:10122000000E2922000E2A22195016026100CCF36A
:101230002BF56100D0F32CF52B5027262C502822BB
:10124000000E2922000E2A221A5016026100CCF349
:101250002BF56100D0F32CF52B501C6E2C501D6E1D
:101260001E6A1F6A1EC51FF51DC51EF51CC51DF58E
:101270001C6A1C5027261D5028221E5029221F5050
:101280002A2226502726000E282229222A2225C576
:1012900026F524C525F523C524F5236A215022C54A
:1012A0001CF51D6A1C26000E1D22820E1C242B6EAE
:1012B000FF0E1D202C6E0FD0D890273628362936E9
:1012C0002A3626BE2780D890233624362536263661
:1012D0002B06D8A02C0629AEEFD7000E216E26AE25
:1012E00017D0FF0E23141C6EFF0E24141D6EFF0E6C
:1012F00025141E6E7F0E26141F6E1C501D101E100E
:101300001F10D8B403D0010E216E02D027B0FBD736
:101310002150D8B41FD0010E2726000E28222922E2
:101320002A222AA017D027C51CF528C51DF529C5D6
:101330001EF52AC51FF51F341F321E321D321C3206
:101340001CC527F51DC528F51EC529F51FC52AF59D
:101350002B4A2C2A2CBE0DD02C5003E12B28D8A0D0
:1013600008D0000E276E000E286E800E296E7F0EAC
:1013700020D02CBE05D02C500EE12B04D8B00BD0C1
:10138000000E276E000E286E000E296E000E2A6ECB
:10139000000E206E0FD02BC522F5FF0E2716FF0E74
:1013A00028167F0E2916000E2A1622B0298ED890F4
:1013B00022302A6E20502A1227C514F528C515F5AB
:1013C00029C516F52AC517F5120061001CF5D9F4D8
:1013D000610020F5DAF4DEC4F6F4DDC4F7F4000EA3
:1013E000F86E0800F550250AD8A4FAD061001CF563
:1013F000D9F4610020F5DAF4DE2A000EDD22000EB9
:10140000D06F000ECF6FCFC5D3F5D0C5D4F5D1695D
:10141000D26961001CF5D9F4610020F5DAF4DEC46C
:10142000F6F4DDC4F7F4000EF86E0800F550640A17
:10143000D8B411D061001CF5D9F4610020F5DAF4BC
:10144000DEC4F6F4DDC4F7F4000EF86E0800F550C3
:10145000690AD8A449D061001CF5D9F4610020F5CF
:10146000DAF4DE2A000EDD22610024F5D9F46100F1
:1014700028F5DAF461007CF34BF5020EDE266100FC
:101480007CF34CF5000EDD2261002CF5D9F46100EF
:1014900030F5DAF4610078F360F5610074F361F51A
:1014A000000E61BFFF0E626F636F646F656F666FE2
:1014B000676F45C521F546C522F560C523F561C5B1
:1014C00024F562C525F563C526F564C527F565C510
:1014D00028F566C529F567C52AF510EC8BF021C5FE
:1014E00045F522C546F5120061001CF5D9F46100EE
:1014F00020F5DAF4DEC4F6F4DDC4F7F4000EF86E7D
:101500000800F550730AD8A434D061001CF5D9F452
:10151000610020F5DAF4DE2A000EDD22610024F5F8
:10152000D9F4610028F5DAF461007CF34BF5020E82
:10153000DE2661007CF34CF5000EDD2261002CF507
:10154000D9F4610030F5DAF4610078F368F56100F0
:1015500074F369F545C50FF546C510F568C511F575
:1015600069C512F5DAEC8CF00FC545F510C546F5E6
:10157000120061001CF5D9F4610020F5DAF4DEC434
:10158000F6F4DDC4F7F4000EF86E0800F550250AF5
:10159000D8A418D061001CF5D9F4610020F5DAF464
:1015A000DE2A000EDD22000E076E250E066E45C5F2
:1015B00008F546C509F5D9EC90F0000E466E010E0F
:1015C000456E120061001CF5D9F4610020F5DAF4D3
:1015D000DE2A000EDD22000E466E000E456E120061
:1015E00061001CF5D9F4610020F5DAF4DEC4F6F4EC
:1015F000DDC4F7F4000EF86E0800F550066E076AB9
:1016000045C508F546C509F5D9EC90F061001CF513
:10161000D9F4610020F5DAF4DE2A000EDD22CDD700
:1016200023C53BF524C53CF525C53DF526C53EF54E
:1016300027C53FF528C540F529C541F52AC542F51E
:1016400042AE02D0010E01D0000E396E3A6A395016
:101650003A10D8B410D0421E411E401E3F1E3E1EFE
:101660003D1E3C1E3B6C000E3C223D223E223F2292
:10167000402241224222D2AFD393D2BF05D0D251D1
:1016800008E1D105D8B005D0000E366E010E356EDA
:1016900004D0D1C535F5D2C536F5CFC537F5D0C59F
:1016A00038F539503A10D8A402D0D3A503D0370664
:1016B000D8A03806000E446E1F0E436E000E0601C1
:1016C000D36F7CD04306D8A04406B40E4324D96E11
:1016D000060E4420DA6E3BC506F53CC507F53DC550
:1016E00008F53EC509F53FC50AF540C50BF541C5EE
:1016F0000CF542C50DF50A0E0E6E000E0F6E000EB3
:10170000106E000E116E000E126E000E136E000EA3
:10171000146E000E156EC2EC8EF006C52BF507C5D3
:101720002CF508C52DF509C52EF50AC52FF50BC5F5
:1017300030F50CC531F50DC532F52BC518F52DC5A5
:1017400019F513EC97F01850300FDF6E3506D8A05E
:1017500036063706D8A038063BC506F53CC507F562
:101760003DC508F53EC509F53FC50AF540C50BF571
:1017700041C50CF542C50DF50A0E0E6E000E0F6E3A
:10178000000E106E000E116E000E126E000E136E23
:10179000000E146E000E156E7EEC8DF006C53BF546
:1017A00007C53CF508C53DF509C53EF50AC53FF539
:1017B0000BC540F50CC541F50DC542F544BE20D022
:1017C000445003E14304D8A01BD03B503C103D10D3
:1017D0003E103F10401041104210D8A473D736BEBF
:1017E00005D0365002E13504D8B06CD738BE08D0E9
:1017F000385003E13704D8A003D00501D3B362D732
:1018000039503A10D8A403D00501D3A518D0430607
:10181000D8A0440639503A10D8A404D0000E346E33
:101820002B0E03D0000E346E2D0E336EB40E4324F7
:10183000D96E060E4420DA6E6100CCF4DFF421C5C7
:1018400016F522C517F5B40E4324186E060E442073
:10185000196E37C51AF538C51BF526EC92F016C57A
:1018600021F517C522F5120006C510F507C511F5BB
:101870000A500B10D8B41200610040F4D9F4610092
:1018800044F4DAF4610020F4DFF40A5010240C6E02
:101890000B5011200D6EFF0E0C24D96EFF0E0D2083
:1018A000DA6E610020F4DFF40B5004E1030E0A5CF1
:1018B000D8A0120020EE01F01050D9261150DA22E3
:1018C000610020F4DFF420EE02F01050D926115010
:1018D000DA22610020F4DFF40A5010240C6E0B5061
:1018E00011200D6EFE0E0C24D96EFF0E0D20DA6E47
:1018F000610020F4DFF40A5010240C6E0B5011200C
:101900000D6EFD0E0C24D96EFF0E0D20DA6E6100F7
:1019100020F4DFF40B5004E1070E0A5CD8A012009B
:1019200020EE03F01050D9261150DA22610020F485
:10193000DFF40A5010240C6E0B5011200D6EFC0EBB
:101940000C24D96EFF0E0D20DA6E610020F4DFF456
:101950000B5004E1090E0A5CD8A0120010C50CF56A
:1019600011C50DF50C1E0D1E0C4A0D2A030E0C148C
:101970000E6E0F6A0E5010260F5011220E500A5E86
:101980000F500B5AFC0E0A16FF0E0B160ED06100FC
:1019900040F4D9F4610044F4DAF4610020F4DFF497
:1019A0000A06D8A00B06104A112A0A500B10D8B408
:1019B0001200EDD721EEE5F211EE14F1060EDBC4B4
:1019C000E3F4E806FCE211C51FF512C520F51F502F
:1019D0002010D8A404D0140E1F6E050E206E1FC553
:1019E00006F520C507F5A0EC95F006C523F507C55B
:1019F00024F5D1C521F5D2C522F522BE0ED0235043
:101A0000215C2250800A136E2450800A1358D8B0EB
:101A100004D021C523F522C524F523C521F524C50D
:101A200022F5CFC51DF5D0C51EF50501D3A10DD0FA
:101A300016D0000E076E200E066E0FC508F510C5F5
:101A400009F5D9EC90F0234A242A1D50235C245038
:101A5000800A136E1E50800A1358D8A0EAD7000ED1
:101A60001C6E000E1B6E21D061007CF4F6F4610048
:101A700080F4F7F4000EF86E250EF76403D008002A
:101A8000F55005D0F6C4E1F4F7C4E2F4E750136E64
:101A90001350066E076A0FC508F510C509F5D9EC95
:101AA00090F01F4A202A1B4A1C2A21501B5C1C5004
:101AB000800A136E2250800A1358D8A0D5D705018A
:101AC000D3B10DD016D0000E076E200E066E0FC5D6
:101AD00008F510C509F5D9EC90F0234A242A1D50C9
:101AE000235C2450800A136E1E50800A1358D8A01D
:101AF000EAD723C50FF524C510F51200000E176EA6
:101B000015AE12D0151E141E131E121E111E101E0D
:101B10000F1E0E6C000E0F22102211221222132211
:101B200014221522010E176E0DAE12D00D1E0C1EC2
:101B30000B1E0A1E091E081E071E066C000E072239
:101B4000082209220A220B220C220D22010E171A4A
:101B500021EE18F1070EDE6AE806FDE20E500F10C6
:101B6000101011101210131014101510D8B446D004
:101B7000010E166E0AD0D8900E360F36103611367A
:101B80001236133614361536162A15AEF4D7D890F9
:101B9000183619361A361B361C361D361E361F36B9
:101BA0000E50065C0F500758105008581150095835
:101BB00012500A5813500B5814500C5815500D5809
:101BC000D8A011D00E50065E0F50075A1050085A78
:101BD0001150095A12500A5A13500B5A14500C5AE9
:101BE00015500D5A1880D890153214321332123213
:101BF000113210320F320E32162EC9D71750D8B408
:101C000010D01F1E1E1E1D1E1C1E1B1E1A1E191E5E
:101C1000186C000E19221A221B221C221D221E22C1
:101C20001F2218C506F519C507F51AC508F51BC505
:101C300009F51CC50AF51DC50BF51EC50CF51FC51C
:101C40000DF512000E6E0E50D8A409AE1AD006C5BE
:101C50000AF507C50BF508C50CF509C50DF50A1EF3
:101C60000B1E0C1E0D1E0A2A000E0B220C220D222A
:101C70000AC510F50BC511F50CC512F50DC513F508
:101C800008D006C510F507C511F508C512F509C538
:101C900013F50650071008100910D8A409D0000E3B
:101CA000066E000E076E000E086E000E096E120022
:101CB000960E0F6E06D00F2AD890133212321132C0
:101CC0001032000E10140A6E000E11140B6E000E6E
:101CD00012140C6EFE0E13140D6E0A500B100C1025
:101CE0000D10D8B40DD0E7D70F2A010E1026000E24
:101CF000112212221322D8901332123211321032D2
:101D0000000E10140A6E000E11140B6E000E121449
:101D10000C6EFF0E13140D6E0A500B100C100D10EC
:101D2000D8B407D0E1D70F06D89010361136123646
:101D3000133612BE03D0020E0F60F5D70FA0129E0D
:101D4000D8900F320FC50AF50B6A0C6A0D6A0AC5E6
:101D50000DF50C6A0B6A0A6A0A5010120B50111228
:101D60000C5012120D5013120E50D8A409AE01D00F
:101D7000138E10C506F511C507F512C508F513C574
:101D800009F51200000E176E0DAE12D00D1E0C1EBE
:101D90000B1E0A1E091E081E071E066C000E0722D7
:101DA000082209220A220B220C220D22010E176E94
:101DB00015AE10D0151E141E131E121E111E101E5D
:101DC0000F1E0E6C000E0F2210221122122213225F
:101DD000142215220E500F10101011101210131093
:101DE00014101510D8B43CD0010E166E0AD0D8903D
:101DF0000E360F36103611361236133614361536A7
:101E0000162A15AEF4D70E50065C0F500758105026
:101E100008581150095812500A5813500B581450B2
:101E20000C5815500D58D8A010D00E50065E0F500B
:101E3000075A1050085A1150095A12500A5A135092
:101E40000B5A14500C5A15500D5AD89015321432A2
:101E500013321232113210320F320E32162ED3D705
:101E60001750D8B410D00D1E0C1E0B1E0A1E091ED2
:101E7000081E071E066C000E0722082209220A22ED
:101E80000B220C220D2206C506F507C507F508C56D
:101E900008F509C509F50AC50AF50BC50BF50CC50A
:101EA0000CF50DC50DF512007A0EF66E0C0EF76EE0
:101EB000010EF86E02EE00F311EE00F00900F5C419
:101EC000EEF4E550E150FAE1E250F8E1400EF66E32
:101ED0002F0EF76E010EF86E01EED4F210EE2CF01C
:101EE0000900F5C4EEF4E550E150FAE1760EF66E25
:101EF000330EF76E010EF86E09006100D4F3EDF5B4
:101F000009006100D4F3EEF509006100D4F3EFF5A8
:101F100002EE00F210EE00F1EE6AE550E150FCE155
:101F2000E250FAE102EE00F1C30EEE6AE806FDE1CE
:101F300002EE00F0C00EEE6AE806FDE101EE00F3ED
:101F400010EE00F1EE6AE550E150FCE1E250FAE1FA
:101F500001EE00F2D40EEE6AE806FDE101EEA8F112
:101F6000450EEE6AE806FDE101EE4FF1070EEE6A5E
:101F7000E806FDE10401080E5D6F000E5E6F000EC5
:101F80005F6F000128EF83F0070EC26E000EC16E76
:101F9000000EBE6E000EBF6E2E0EC06E000ECA6E1C
:101FA000D50EC66EBF0EC76E910EC86E3C0EC96EC2
:101FB0003C0E0401186F010E106F3F0E086F000EEB
:101FC000206FC00E006F000E196F060E216F000EFD
:101FD000096F150E016F060E116F000E0201896F59
:101FE000000E886F000E876F000E866F000E0401D2
:101FF000226F000E026F000E0A6F000E126F000EAD
:102000001A6F000E036F000E0B6F1369000E1B6F2B
:10201000000E236F04690C6914691C690F0E246F8C
:102020000F0E0201746F130E6A6F230E0F6F310EC5
:10203000146F320E166F200E176F170E726F140E7C
:102040006B6F12002F343034366E3650D8A409D05E
:10205000000E2D6E000E2E6E000E2F6E000E306ED6
:1020600012002DC531F52EC532F52FC533F530C51B
:1020700034F5200E05D0D89034323332323231323A
:10208000E82EF9D73150356E2F8EFF0E2D16FF0E2C
:102090002E16FF0E2F16000E3016960E365E36AE3A
:1020A0000DD03650800A970FD8A0D2D7D8903032B2
:1020B0002F322E322D32363EF9D70DD01F0E366418
:1020C00007D0C6D7D8902D362E362F363036360666
:1020D0003650D8A4F7D73550D8B408D0301E2F1EAC
:1020E0002E1E2D6C000E2E222F2230222DC52DF5F6
:1020F0002EC52EF52FC52FF530C530F51200A29054
:10210000AA0E066E230E076E010E086E60EC99F0A3
:10211000A292120E066E2F0E076E010E086E59EC7B
:1021200099F0000E0201A56F000EA66F000EA76FBA
:10213000000EA86F000EA96F000EAA6FB00EAB6F55
:10214000800EAC6F000EAD6F820EAE6F060EAF6FDD
:10215000000EB06F000EB16F000EB26F000EB36FC5
:102160008A0E066E330E076E010E086E6EEC99F045
:10217000880E066E330E076E010E086E67EC99F03E
:10218000700E066E330E076E010E086E75EC99F038
:10219000000E0501E46F000EE76F000EE66F400EC3
:1021A000516E000E506E000E4F6E000EE56FA28055
:1021B000120008500910D8B404D008500910D8A44F
:1021C00004D00650BDEC99F0120020EE04F0085047
:1021D000D9260950DA22DE50DE10D8B416D020EE0F
:1021E00004F00850D9260950DA2210EE02F0085007
:1021F000E1260950E222DE50E65CE650800A0E6ECF
:10220000DE50800A0E58D8B0120020EE02F00850BE
:10221000D9260950DA22610078F30AF5610074F3D7
:102220000BF5610020F4D9F4610024F4DAF46100C4
:1022300078F30CF5610074F30DF50A500C24D96E97
:102240000B500D20DA6E610018F4DFF420EE02F07E
:102250000850D9260950DA22DE2A000EDD221200AB
:10226000A690080E066E230E076E010E086E3DEC5A
:1022700099F0A692E40E066E2E0E076E010E086E01
:1022800036EC99F0000E0201B86F000EBA6F000E26
:10229000BC6FB00EBE6F800EBF6F000EC06F820E9F
:1022A000C16F060EC26F000EC36F000EC46F000E2A
:1022B000C56F000EC66F860E066E330E076E010EDA
:1022C000086E4BEC99F0840E066E330E076E010E0D
:1022D000086E44EC99F06A0E066E330E076E010E1E
:1022E000086E52EC99F0000E0501E96F000E556E74
:1022F000000EEB6F400E546E000E536E000E526EC9
:10230000000EEA6FA6801200800E5324D96EDA6A9E
:10231000070EDA22000EDF6E0201C5A715D0800E6F
:102320005324D96EDA6A070EDA220701DF8201D858
:102330000BD00500FA6E0501BB51FD6EBC51FE6E5F
:10234000BD51FF6EFA5012000201C5A315D0800ED8
:102350005324D96EDA6A070EDA220701DF8401D826
:102360000BD00500FA6E0501B851FD6EB951FE6E35
:10237000BA51FF6EFA501200800E5324D96EDA6AF9
:10238000070EDA22DF50D8B40DD001D812000500B4
:10239000FA6E0501B551FD6EB651FE6EB751FF6E76
:1023A000FA50120064EC96F01200400E5024D96EE0
:1023B000DA6A070EDA22000EDF6E0201B2A715D02C
:1023C000400E5024D96EDA6A070EDA220701DF8246
:1023D00001D80BD00500FA6E0601B151FD6EB25165
:1023E000FE6EB351FF6EFA5012000201B2A315D077
:1023F000400E5024D96EDA6A070EDA220701DF8414
:1024000001D80BD00500FA6E0601AE51FD6EAF513A
:10241000FE6EB051FF6EFA501200400E5024D96E7D
:10242000DA6A070EDA22DF50D8B40DD001D81200D4
:102430000500FA6E0601AB51FD6EAC51FE6EAD515A
:10244000FF6EFA50120085EC98F012000501D3A13E
:102450000AD018C50FF519C510F516C511F517C521
:1024600012F5DDEC96F01BBE05D01AC51FF51BC595
:1024700020F504D0000E206E000E1F6E000E1E6EA2
:10248000000E1D6E0CD0000E076E200E066E16C5D7
:1024900008F517C509F5D9EC90F01D4A1E2A1F5002
:1024A0001D5C1E50800A1C6E2050800A1C58D8A04B
:1024B000EAD70501D3B10AD018C50FF519C510F533
:1024C00016C511F517C512F5DDEC96F018C506F521
:1024D00019C507F5A0EC95F01F500624166E205084
:1024E0000720176E1200800E0601936F090E946F7D
:1024F00093C612F594C613F5B6EC98F0300E066E3E
:10250000570E076E050E086E000E096EA2EC96F0CF
:10251000460EC0EC96F0200E066E030E076E000EFF
:10252000086E000E096EA2EC96F0410EC0EC96F01B
:10253000500E066E000E076E000E086E000E096E3D
:10254000A2EC96F0530EC0EC96F0020E96EC98F0CA
:10255000500E066E000E076E000E086E000E096E1D
:10256000A2EC96F0510EC0EC96F0200E066E030E13
:10257000076E000E086E000E096EA2EC96F01200B7
:10258000000E126E000E146E2FD0550E136E1268D0
:1025900027D012C513F524D014500C24106E000E51
:1025A0000D20116E610040F4F6F4610044F4F7F47C
:1025B000000EF86E08006100D4F313F513501226D4
:1025C0000FD01450106E116A1150000AD8A4E4D72D
:1025D0001050000AD8B4D9D7090AD8B4DAD7DCD752
:1025E0001350F9EC96F0142A0E50145CD8A0E9D7D9
:1025F0000F50D8B41200300E066E750E076E000E26
:10260000086E000E096EA2EC96F01200000E106E1D
:10261000000E0F6E0F500A240C6E10500B200D6E22
:10262000610030F4F6F4610034F4F7F4000EF86E53
:1026300008006100D4F30EF50E5010EC99F0C2B012
:1026400003D00C6A0C2A01D00C6AC2500C18FE0B85
:102650000C18C26E100E066E270E076E000E086E66
:10266000000E096EA2EC96F00F4A102A10BED2D7C7
:10267000105004E10E0E0F5CD8A0CCD7500E066EA1
:10268000C30E076E000E086E000E096EA2EC96F0E7
:1026900012000601D451D8B415D0070E006108D03D
:1026A000590E016505D00501D54BD62B010EE16F02
:1026B000710E0601006506D0590E016503D00501B3
:1026C000D54BD62B0501D65104E1050ED55DD8A01A
:1026D0001200010E0601DE6F000E5C6F000E050198
:1026E000D66F000ED56FC18CC18E010E0601006F32
:1026F000010E016F120017C506F518C507F5A0EC0D
:1027000095F00650196EAEEC99F0B2EC99F093C6C4
:1027100012F594C613F5000E146E66EC94F0C09496
:10272000150E196402D0150E196E93C611F594C6D4
:1027300012F517C513F518C514F519C515F5B9EC3B
:1027400094F093C606F594C607F519C508F5096A0D
:1027500056EC95F0BEEC99F012001F6E09D0400EB9
:1027600005D0140E03D0540E01D0000E206E15D0EB
:102770001F501D6E1E6A1E50000AD8A4F0D71D50AF
:10278000000AD8B4ECD7010AD8B4EBD7030AD8B4FE
:10279000EAD7010AD8B4E9D7E2D7450EC0EC96F0E3
:1027A00020501A2496EC98F0AEEC99F0C0841BC52A
:1027B00017F51CC518F57BEC93F012006CC54DF5B0
:1027C0006DC54EF5000ECE6F000ECD6F13D06AC5ED
:1027D00045F56BC546F54D0E476E050E486E6EC548
:1027E00049F56FC54AF5E5EC89F045500501CD275F
:1027F0004650CE23610034F5F6F4610038F5F7F465
:10280000000EF86E0800F5500009D8A4E0D7CDC539
:102810006AF5CEC56BF51200010EE86F800EF96FF8
:10282000000EFA6F000EFB6F050EF16FEC0EF06FED
:10283000000EFD6F000EF86F010EF76F000EEF6FC8
:10284000010EEE6F180EFF6F000EFE6FB49AB49873
:10285000B49EB49CA48A8E0E066E330E076E010ED3
:10286000086E8AEC99F0A498A49EA49CC00EFC6FFC
:102870001200000EE86F000EF96F090EFA6F000EDD
:10288000FB6F000EF16F810EF06F020EFD6F000EF8
:10289000F86F010EF76F000EEF6F010EEE6F000E76
:1028A000FF6F000EFE6FB09AB098B09EB09CA09AD9
:1028B000A0888C0E066E330E076E010E086E91EC2A
:1028C00099F0A09EA09C800EFC6F120020EE42F0BA
:1028D0001250D9261350DA22000EDF6E20EE40F09F
:1028E0001250D9261350DA22000EDF6E20EE41F08E
:1028F0001250D9261350DA22000EDF6E1450D8B4CD
:10290000120012C506F513C507F5000E096E000E7C
:10291000086E000E0B6E400E0A6E34EC8CF0120046
:10292000A50E0C6EFF0E0D6E0A0E0E6E000E0F6ED3
:10293000C0EC92F0600E066EAE0E076E0A0E086EC8
:10294000000E096EA2EC96F0BD0E0C6EFF0E0D6E21
:102950000A0E0E6E000E0F6EC0EC92F0B10E0C6EF1
:10296000FF0E0D6E0A0E0E6E000E0F6EC0EC92F092
:10297000120020EE42F01150D9261250DA22400EF9
:10298000DF60120011C506F512C507F513C508F57D
:1029900014C509F515C50AF50B6A09EC95F020EE8A
:1029A00040F01150D9261250DA22610054F4DFF4BD
:1029B00020EE42F01150D9261250DA22610054F470
:1029C000DFF41200740E846F050E856F70C586F5F6
:1029D00071C587F5000E896F000E886F000E8B6F32
:1029E000000E8A6F860E6A6F050E6B6F72C56CF5EE
:1029F00073C56DF5840E6E6F050E6F6FDEEC93F090
:102A000088517025D96E89517121DA6E000EDF6E02
:102A1000120008C50FF509C510F506C50DF507C567
:102A20000EF515D061003CF4D9F4610040F4DAF4FD
:102A3000DF500C6E0F4A102A610034F4D9F46100A3
:102A400038F4DAF4610030F4DFF40D4A0E2A0A0695
:102A5000D8A00B060A28E6E10B28D8B41200E2D76A
:102A6000D68A000ED6BE010E066ED69E550E040105
:102A7000596FAA0E596F5991000E5F6F000E5E6F6D
:102A8000080E5D6F550E596FAA0E596F598106B029
:102A900002D0D69E01D0D68E0301688B64896A83EA
:102AA0006A816683668171876A89120006C50AF5A4
:102AB00007C50BF517D0010E0001826F610028F4E5
:102AC000D9F461002CF4DAF4DF50816FB1A0FED7A5
:102AD000610028F4D9F461002CF4DAF480C0DFF44A
:102AE0000A4A0B2A0806D8A009060828E4E10928A2
:102AF000D8B41200E0D7000E376F000E386F010E09
:102B0000396FB10E356FE00E346FB69834516000F6
:102B1000D4FC09F50A6A09C50AF5096A0910050114
:102B2000D96F0A50DA6FA688820E066E330E076ED2
:102B3000010E086E83EC99F0310E0301366F12001E
:102B400006C508F507C509F502D0064A072A61003F
:102B500018F4F6F461001CF4F7F4000EF86E250E7C
:102B6000F76403D00800F55005D0F6C4E1F4F7C4CB
:102B7000E2F4E7500009D8A4E8D70850065C066ED6
:102B800009500758076E120001D004000501EA51F0
:102B9000D8B4FBD7800E5224D96EDA6A070EDA2237
:102BA000DF50E96F800E5224D96EDA6A080EDA22FD
:102BB000DF50066E522A3F0E526402D0000E526E53
:102BC000A690EA07A6800650120001D00400050175
:102BD000E551D8B4FBD7400E4F24D96EDA6A070E00
:102BE000DA22DF50E46F000E4F24D96EDA6A080E45
:102BF000DA22DF50066E4F2A3F0E4F6402D0000EDD
:102C00004F6EA290E507A28006501200066E01D01A
:102C100004005150D8B4FCD7A2B204D0610018F41B
:102C2000A3F212D0A292400E0501E725D96EDA6A0E
:102C3000080EDA22610018F4DFF4E72B3F0EE76597
:102C400002D0000EE76F5106A2821200066E01D07C
:102C500004005450D8B4FCD7A6B204D0610018F4D4
:102C6000B6F211D0A692C00E5524D96EDA6A070EBC
:102C7000DA22610018F4DFF4552A3F0E556402D0C1
:102C8000000E556E5406A682120030EC95F019EC39
:102C900098F0C4EC8FF0A6EC98F0A4EC99F00CEC52
:102CA00094F039EC94F0C5EC98F05BEC97F07BEC89
:102CB00095F07FEC90F030EC91F0E2EC98F0A9EC1C
:102CC00099F098EC99F01200C2A402D0010E01D044
:102CD000000EFF0A036E03460346C2500318FB0BA7
:102CE0000318C26E800E5324D96EDA6A080EDA22F7
:102CF000B4C2DFF4532A3F0E536402D0000E536E69
:102D00000501EA2B1200000EE86F060EE86501D0FF
:102D10001200E851020D7F0EF324D96E060EF42046
:102D2000DA6EDE50DE10D8B40BD0E851020D7F0E03
:102D3000F324D96E060EF420DA6EDE06000EDD5A9C
:102D4000E82BE3D7000E0601A36F000EA46F000E60
:102D5000A56F000EA66F09D000F00400010E060159
:102D6000A327000EA423A523A623A351065CA451E8
:102D70000758A5510858A6510958D8A01200ECD7F9
:102D80000A6EC094FE0EEFEC98F0080E066E000E70
:102D9000076E000E086E000E096EA2EC96F00A5047
:102DA000EFEC98F0080E066E000E076E000E086E2F
:102DB000000E096EA2EC96F01200000E156E000EC9
:102DC000146E0BD013C506F5076A11C508F512C5B8
:102DD00009F5D9EC90F0144A152A14500F24D96E35
:102DE00015501020DA6EDF50136E1350D8B4120055
:102DF000E9D70B6E0B5010EC99F0C2B003D00A6A01
:102E00000A2A01D00A6AC2500A18FE0B0A18C26EBA
:102E1000100E066E270E076E000E086E000E096E6D
:102E2000A2EC96F0120019BE05D0195010E118045A
:102E3000D8B00DD018C51AF519C51BF51A1E1B1EE2
:102E40001A4A1B2A1AC518F51BC519F5120018C510
:102E500018F519C519F51200B698D9C501F5DAC5E6
:102E600002F5CAEC97F00501D74BD82BD85104E1F5
:102E7000640ED75DD8A0110074EC98F0000E050127
:102E8000D86F000ED76F11000A6E06C508F507C58A
:102E900009F5D890083609360A50020D7F0EF32442
:102EA000D96E060EF420DA6E610020F4DEF46100C3
:102EB00024F4DDF41200010E3E6F200E3D6F000E73
:102EC0003F6FF90E3B6F000E3A6FBD96AD86060E52
:102ED000066E2D0E076E010E086E7CEC99F0B30E97
:102EE0003C6F1200400E546012D0C00EEB25D96E1C
:102EF000DA6A070EDA22DF500201B66F0501EB2B0A
:102F00003F0EEB6502D0000EEB6F542A1200A69222
:102F10001200400E516012D0400EE625D96EDA6ADA
:102F2000080EDA22DF500201A36F0501E62B3F0EE7
:102F3000E66502D0000EE66F512A1200A29212003E
:102F4000000000000000000100000000000100007F
:102F500000286E756C6C29006666263F14AE673FCC
:102F60000000E03F3333F33FF1FFE5FF086E000E52
:102F7000096E04000850020D7F0EF324D96E060E70
:102F8000F420DA6EDE50DE10D8A402D0010E096EF5
:102F900009501200030136A509D03691610008F4EA
:102FA00035F3610004F434F336811200610008F453
:0A2FB00035F3610004F434F312005D
:102FBC00BD960501B251B311B411D8B4110001D8AA
:102FCC0011000500FA6EB251FD6EB351FE6EB45194
:062FDC00FF6EFA50120026
:102FE400B0980501AF51B011B111D8B4110001D896
:102FF40011000500FA6EAF51FD6EB051FE6EB15175
:06300400FF6EFA501200FD
:10300C00B49A0501AC51AD11AE11D8B4110001D870
:10301C0011000500FA6EAC51FD6EAD51FE6EAE5155
:10302C00FF6EFA501200000E0001606F000E616F0F
:10303C00000E636F000E646F000E656F000E666FFE
:0A304C00000E676F000E686F12009F
:103058000501C751C811C911D8B4110001D8110010
:103068000500FA6EC751FD6EC851FE6EC951FF6E5C
:10307800FA5012000501CA51CB11CC11D8B4110075
:1030880001D811000500FA6ECA51FD6ECB51FE6ED3
:10309800CC51FF6EFA5012000501C151C211C31183
:1030A800D8B4110001D811000500FA6EC151FD6EA7
:1030B800C251FE6EC351FF6EFA5012000501C45191
:1030C800C511C611D8B4110001D811000500FA6E57
:1030D800C451FD6EC551FE6EC651FF6EFA50120006
:1030E800BE51BF11C011D8B4120001D8120005009A
:1030F800FA6EBE51FD6EBF51FE6EC051FF6EFA50A2
:103108001200000E5024D96EDA6A080EDA22A1C223
:10311800DFF4502A3F0E506402D0000E506E0501B5
:10312800E52B12000A6EC0940A50EFEC98F0080ED6
:10313800066E000E076E000E086E000E096EA2ECF9
:1031480096F01200200E0001AD6F000EAF6F000E5A
:10315800B36F020EB16F000EB06F000EAC6FB2B15C
:103168001200FDD712C506F513C507F5000E096E46
:10317800000E086E000E0B6E430E0A6E34EC8CF0D7
:103188001200010E0301266F000E256F000E276F37
:103198000F0E236F000E226FB196800E246F12005F
:1031A800C1A202D0010E01D0000EFF0A016E014635
:1031B800C1500118FD0B0118C16E1200030E000169
:1031C800846F240E856F030E866F020E8C6F040EBB
:1031D800896FC8961200066E010E0001826F6100A9
:1031E80018F481F0B1A0FED7000180511200A00EA2
:1031F800066E860E076E010E086E000E096EA2ECB2
:1032080096F01200076E1AEC99F00009D8B4FBD7B3
:10321800075006EC96F01200076E2FEC99F00009A3
:10322800D8B4FBD7075026EC96F012005150D8B40A
:1032380002D0010E1200000E1200EA51D8B402D0DA
:10324800010E1200000E1200E551D8B402D0010E92
:103258001200000E12005450D8B402D0010E120011
:10326800000E120006C5C7F507C5C8F508C5C9F59B
:10327800120006C5CAF507C5CBF508C5CCF512007E
:1032880006C5B8F507C5B9F508C5BAF5120006C5EB
:10329800BBF507C5BCF508C5BDF5120006C5B5F5F3
:1032A80007C5B6F508C5B7F5120006C5C1F507C5C7
:1032B800C2F508C5C3F5120006C5C4F507C5C5F5AE
:1032C80008C5C6F5120006C5AEF607C5AFF608C5AF
:1032D800B0F6120006C5B1F607C5B2F608C5B3F6D2
:1032E800120006C5ABF607C5ACF608C5ADF6120068
:1032F80006C5B2F507C5B3F508C5B4F5120006C58D
:10330800BEF507C5BFF508C5C0F5120006C5ACF582
:1033180007C5ADF508C5AEF5120006C5AFF507C57A
:10332800B0F508C5B1F51200550EB46FAA0EB46F0A
:10333800B4811200010E0001E86FFC9DFC9B120095
:103348001C0E786F070E796F1200000E3A6F960EFA
:10335800396F1200000187BB1200FCD706018D8768
:10336800120064EC96F0120085EC98F01200FF5EF3
:0133780077DD
:04337A00120012002B
:1033800011001200120012001200120012001200AE
:020000040020DA
:10000000FF0FFF0FFF0FFF0FFF0FFF0FFF0FFF0F80
:10001000FF0FFF0FFF0FFF0FFF0FFF0FFF0FFF0F70
:020000040030CA
:0A000000AFFFFFDFAEC7FFFFFFFFF9
:00000001FF
