:020000040000FA
:0600000042EF06F01200C1
:020006001200E6
:060008000EEF00F01200F3
:02000E000100EF
:0C001000BC0C0000C00000002500000037
:04001C00DACFE4FF54
:10002000E2CFDAFFE9CFE4FFEACFE4FFF6CFE4FF67
:10003000F7CFE4FFF8CFE4FFF5CFE4FFF3CFE4FF21
:10004000F4CFE4FFFACFE4FFFBCFE4FF00EE06F0CD
:10005000020EE80403E3EECFE4FFFBD700EE00F06E
:10006000040EE80403E3EECFE4FFFBD7E652D9CF5A
:10007000E6FFE1CFD9FF020EE1269EAA49D1000199
:10008000CF2B000ED023AECFF2F0AB50020B03E12A
:10009000AB50040B0BE00001F26BAB98AB88000196
:1000A000E251E22B030807E2E26B05D00001EFBF4B
:1000B00002D0F2C0ADFF0001F25104E1010E0001D7
:1000C000D86FD96B3F0E0001F25D07E10001E12B13
:1000D000E151090804E20001EF8F0001E16B00012A
:1000E000F2AF23D03F0EF215E66ED8C0E9FFD9C0BB
:1000F000EAFFD890E936EA36C30EE926000EEA2276
:10010000E552E750EE6EED6A0001D82B000ED923C0
:10011000D93501E3FDD0D8510608000ED95501E3C9
:10012000F7D0010ED86FD96BF3D0010E0001D86F54
:10013000D96B0F0EC515046E056A060ED8900436ED
:100140000536E804FBE104500001C7250001F36F08
:1001500005500001C8210001F46FF2510001C36F86
:10016000C46BC051690A01E1A6D01C0A01E189D023
:10017000130A6DE0030A51E0170A01E0C7D0D12B42
:10018000D151020802E20001EF950001F43543E28B
:10019000F3519008010EF4553EE2D890F45104E674
:1001A000200EF35D030EF45936E2EF850001D16BAA
:1001B000E3510001F35D046EF4510001E455056E56
:1001C00004C0DEFFDD6EDECF04F0DDCF05F0800E73
:1001D00005140AE0DECFEDF0DDCFEEF00001ED6DAD
:1001E000EE1F000EEE2304D0DECFEDF0DDCFEEF0FB
:1001F000F3C0E3F0F4C0E4F00001ED51EB5DEE512B
:10020000EC5909E3EFB18A90F0810001D75101E088
:100210007DD089887BD08A8079D0D22BD2510208B8
:1002200002E20001EF970001F43570E2F351C808D3
:10023000000EF4556BE2D890F45104E6840EF35DA1
:10024000030EF45963E2EF870001D26B5FD0D32B2A
:10025000D351020802E20001EF990001F43556E2A1
:10026000F351C808000EF45551E2D890F45104E659
:10027000060EF35D040EF45949E2EF890001D36BD9
:1002800045D0D42BD451020802E20001EF9B0001BB
:10029000F4353CE2F351BC08020EF45537E2D89035
:1002A000F45104E61A0EF35D040EF4592FE2EF8BBD
:1002B0000001D46B2BD00001EF830001D52BD55169
:1002C000020802E20001EF9D0001F4351FE2F35144
:1002D0002C08010EF4551AE2D890F45104E6BC0E35
:1002E000F35D020EF45912E2EF8D0001D56B0001AF
:1002F000EFBB0AD0F051010B09E00001D751D72B19
:10030000030804E2899802D00001D76BF2C0C0F064
:100310009EA007D09E905EDA0001D65102E1000156
:10032000EF83F2A49ED0F2945EDA00010A0ED88028
:10033000CF55000ED05505E2010ED66FCF6BD06BB6
:1003400008D0D66B0001EF9DEF9BEF99EF97EF95EB
:100350008A800001E951EA1135E0E551010B01E025
:10036000F171E551020B06E0F151010B02E0F1934E
:1003700001D0F183E551040B01E0F175E551080B63
:1003800006E0F151040B02E0F19701D0F187E5514D
:10039000100B01E0F179E551200B06E0F151100B53
:1003A00002E0F19B01D0F18BE551400B01E0F17DC2
:1003B000E551800B27E0F151400B02E0F19F22D084
:1003C000F18F20D0E551010B01E0F171E551020BF5
:1003D00001E0F173E551040B01E0F175E551080B03
:1003E00001E0F177E551100B01E0F179E551200BC7
:1003F00001E0F17BE551400B01E0F17DE551800B1F
:1004000001E0F17F0001E0510001F15D2AE0F1A17E
:1004100002D0899001D08980F1A302D0899201D0C5
:100420008982F1A502D0899401D08984F1A702D0F4
:10043000899601D08986F1A902D08A9C01D08A8C44
:10044000F1AB02D08A9E01D08A8EF1AD02D0899C98
:1004500001D0898CF1AF02D08A9A01D08A8AF1C08A
:10046000E0F0020EE15C02E2E16AE552E16EE55283
:10047000E7CFD9FFE55200EE03F0040EE80403E3F2
:10048000E5CFEDFFFBD700EE07F0020EE80403E333
:10049000E5CFEDFFFBD7E5CFFBFFE5CFFAFFE5CFDB
:1004A000F4FFE5CFF3FFE5CFF5FFE5CFF8FFE5CFAC
:1004B000F7FFE5CFF6FFE5CFEAFFE5CFE9FFE5CFB0
:1004C000DAFF11000001EFA3B3D089B802D0E66AC9
:1004D000ADD90001EF51400B01E0010E036EEF5169
:1004E000200B01E0010E026EEF51100B01E0010E36
:1004F000016EEF51080B01E0010E006EEF51040B8D
:1005000001E0010E00140114021403141DE0EE3585
:1005100004E2ED511E08000EEE5516E3E66A010EE8
:10052000E66E50D9E66A010E75D9020E78D9030E2F
:1005300071D9040E74D9050E6DD9060E70D9070E47
:100540003AD90001EF814ED0EF91480E086EEE0EC1
:10055000096EEFAB08D0010EE66EE66E33D9E66A9F
:10056000010E61D903D0010EE66E60D90001EFAD36
:1005700008D0010EE66EE66E040E51D9050E53D971
:1005800007D0010EE66EE66A040E44D9050E13D9B3
:100590000001EFA708D0010EE66EE66E020E3FD90D
:1005A000030E41D907D0010EE66EE66A020E32D97B
:1005B000030E01D90001EFA908D0010EE66EE66E28
:1005C000060E2DD9070E2FD907D0010EE66EE66A6A
:1005D000060E20D9070EEFD8F29E08C0C1F009C060
:1005E000C2F0F28E0001EF93EF51400B400A01E0A0
:1005F000010E036EEF51200B200A01E0010E026E86
:10060000EF51100B100A01E0010E016EEF51080BC3
:10061000080A01E0010E006EEF51040B040A01E02C
:10062000010E001401140214031402E08988F091F1
:10063000F36AF46A1200F29EDFD81EE1ACA2FED784
:100640000D0EAD6EACA2FED70A0EAD6EACA2FED7FB
:100650004E0EAD6EACA2FED74F0EAD6EACA2FED765
:10066000520EAD6EACA2FED74D0EAD6E050E000162
:10067000EB6FEC6B440E1BD0010E0001EB6FEC6BCB
:100680000D0EAD6EACA2FED70A0EAD6EACA2FED7BB
:10069000460EAD6EACA2FED7490EAD6EACA2FED733
:1006A0004E0EAD6EACA2FED7450EAD6E3F0EE66EA1
:1006B000000EE66EE66A68EC05F0E552E552E5529A
:1006C0005BEC06F0F28E0001EF9F8988EB5112007F
:1006D0007F0EC16ED08E926A120E936E89908992AF
:1006E000899489968A9C8A9E899C8A9A8A908998FC
:1006F000B6EC04F00001480EC16FEE0EC26F950E0D
:10070000E66E16EC06F0E5526ED8E50EE66EBDEC30
:1007100005F0E5525FD88A962A0EE66EE66A7C0EF0
:10072000E66E23EC05F0E552E552E552AA86AC846C
:10073000B06A2A0EAF6EF28AF1849D809F8002D843
:10074000F28E12000001EF93EF91EF9F050EEB6F19
:10075000EC6B52D804E1010E0001EB6FEC6BACA224
:10076000FED7460EAD6EACA2FED7470EAD6EACA264
:10077000FED7420EAD6EACA2FED7400EAD6EACA25F
:10078000FED74D0EAD6EACA2FED7430EAD6EACA241
:10079000FED7480EAD6EACA2FED7500EAD6EACA229
:1007A000FED70001EB51120093DF8CDE0001EFAFAA
:1007B000FCD741DFFAD7E66E1CEC04F0E552E552B7
:1007C000E5521200E66A1CEC04F0E552E552E552EF
:1007D000E66A1200B20EE66EE70EE66EDEEC05F09B
:1007E000E552E5521200C1C0E6FFC2C0E6FFFAECD6
:1007F00005F0E552E5521200000EE66EE66A9BEC4B
:1008000005F0E552E5523F081200C40E085E090EDD
:10081000095A1200D0DFE66A010EE66E1200CBDF45
:10082000E66AE66A1200C7DF05EF04F0E66ACADF8F
:08083000010EE66EDBEF03F0A0
:08083800A3D8070869E3FD0ED7
:10084000DB5010E0A4D802E0ABD8FEE1F350F31C7B
:10085000006E016A00BE016800500001E7170150F8
:10086000E8170ED094D802E09BD8FEE1F350006E5A
:10087000016A00BE016800500001E7130150E8134F
:10088000FC0EDB500FE083D802E08AD8FEE1F35083
:10089000006E016A00BE016800500001E5130150BE
:1008A000E61336D074D802E07BD8FEE1F350F31C97
:1008B000006E016A00BE016800500001E51701509A
:1008C000E61765D802E06CD8FEE1F350F31C000196
:1008D000F117FE0EDB50E7C002F0E8C003F005E0C0
:1008E000D89003320232E804FBE1010E0216000E3A
:1008F0000316FE0EDB5002C000F003C001F005E05D
:10090000D89000360136E804FBE100500001F113F5
:100910000001F15141D034D8E5C000F0E6C001F04B
:1009200005E0D89001320032E804FBE1010E00142A
:1009300033D0D9CFE6FFE1CFD9FFE652E9C0DFFFE0
:10094000FE0EDB500001E96FEA6BDF50E55224D068
:1009500017D8E7C000F0E8C001F005E0D8900132F8
:100960000032E804FBE1010E001416D00001F16929
:100970000001E56BE66BE76BE86BE96BEA6B120075
:10098000D9CFE6FFE1CFD9FFFE0EDB501200010EFA
:10099000F36EFE0EDB501200E552E7CFD9FF1200D6
:0809A000D890F336E8061200BE
:0809A8000E0EF66E000EF76E54
:1009B000000EF86E00010900F550FA6F0900F550BD
:1009C000FB6F03E1FA6701D03DD00900F550F56FE8
:1009D0000900F550F66F0900F550F76F090009009E
:1009E000F550E96E0900F550EA6E090009000900AA
:1009F000F550F86F0900F550F96F09000900F6CFBE
:100A0000FCF0F7CFFDF0F8CFFEF0F5C0F6FFF6C032
:100A1000F7FFF7C0F8FF0001F85302E1F95307E0D0
:100A20000900F550EE6EF807F8E2F907F9D7FCC0B7
:100A3000F6FFFDC0F7FFFEC0F8FF0001FA07000E49
:060A4000FB5BBFD71200B2
:0A0A4600D9CFE6FFDACFE6FFE1CFDB
:100A5000D9FFE2CFDAFFAC6AAB6AFD0EDBB0AC883F
:100A6000DBA202D0AC8CAB8CDBB4AC8EDBA602D0AC
:100A7000AB8801D0AB8ADBB8AC849E98DBBAAB867E
:100A8000DBAC02D09D8A01D09D9A9E9ADBAE02D04B
:100A90009D8801D09D98FB0EDB50AF6EFB0EFC0EC7
:100AA000DBCF01F001C000F0016A0050B06EAC8AEB
:100AB000AB8E93929388AC50100B04E0AC50800B3B
:100AC00001E19382E552E5CFDAFFE7CFD9FF1200CB
:100AD000D9CFE6FFDACFE6FFE1CFD9FFE2CFDAFFE9
:100AE000E652DF6AFF0EE76EFC0EDBCF00F0E75048
:100AF00000160050A96EFB0EDB50A86EA69EA69CA9
:100B0000A684F250800B01E0010EDF6EF29E550EBE
:100B1000A76EAA0EA76EA682A6B2FED7DF50E8B0D7
:100B2000F28EE8A0F29EA694E552E552E5CFDAFFF8
:060B3000E7CFD9FF12001F
:0A0B3600D9CFE6FFDACFE6FFE1CFEA
:100B4000D9FFE2CFDAFFFF0EE76EFC0EDBCF00F03D
:100B5000FD0EDBCF01F0E7500016016A0050A96ED0
:100B6000A69CA69EA68000000000A85000D0E552DA
:0A0B7000E5CFDAFFE7CFD9FF12004E
:060B7A00D9CFE6FFDACF3F
:100B8000E6FFE1CFD9FFE2CFDAFFFD0EDB507E0BAF
:100B9000CD6EFD0EDBAC02D0CD8E01D0CD9ECF6AE6
:100BA000CE6A9E90DBAE02D09D8001D09D90CD801C
:0C0BB000E552E5CFDAFFE7CFD9FF1200D5
:040BBC00D9CFE6FFA8
:100BC000DACFE6FFE1CFD9FFE2CFDAFFE652E65215
:100BD000FC0EDBCFDEFFDBCFDDFF010EDB50CF6E87
:100BE000DF50CE6EE552E552E552E5CFDAFFE7CFB2
:040BF000D9FF120017
:0C0BF400D9CFE6FFDACFE6FFE1CFD9FF52
:100C0000E2CFDAFFE652E652FC0EDBCFDEFFDBCFAF
:100C1000DDFF010EDB50D76EDF50D66EE552E55298
:0C0C2000E552E5CFDAFFE7CFD9FF120064
:040C2C00D9CFE6FF37
:100C3000DACFE6FFE1CFD9FFE2CFDAFFFD0EDB50DE
:100C40007F0BD56ED76AD66AF294FD0EDBAE02D06A
:100C5000F28A01D0F29AD58EE552E5CFDAFFE7CFDE
:040C6000D9FF1200A6
:0C0C6400000EF36E00EE00F0010E01D84F
:100C70001200EA6002D0EE6AFCD7F350E96012007D
:040C8000EE6AFCD745
:0C0C840010EE80F020EE80F0F86A079C73
:100C9000D4EC04F003EC00F0D4EC03F0FBD712002A
:100CA00030393A32373A35390044656320323620DC
:050CB000323031360076
:060CB600A6B2FED71200F9
:040CBC0000DC8500D3
:100CC0000000000000000000000000000000000024
:100CD000000000000100A90C00A00C00FF000000B3
:010CE0000013
:020000040030CA
:01000100C539
:010002000FEE
:010003001EDE
:01000500807A
:010006008178
:0100080000F7
:01000900C036
:01000A0003F2
:01000B00E014
:01000C0003F0
:01000D0040B2
:00000001FF
