:020000040000FA
:06000000DBEF05F0120029
:020006001200E6
:060008000EEF00F01200F3
:02000E000100EF
:0C001000EE0B0000C00000002400000007
:04001C00DACFE4FF54
:10002000E2CFDAFFE9CFE4FFEACFE4FFF6CFE4FF67
:10003000F7CFE4FFF8CFE4FFF5CFE4FFF3CFE4FF21
:10004000F4CFE4FFFACFE4FFFBCFE4FF00EE06F0CD
:10005000020EE80403E3EECFE4FFFBD700EE00F06E
:10006000040EE80403E3EECFE4FFFBD7E652D9CF5A
:10007000E6FFE1CFD9FF020EE1269EAA32D10001B0
:10008000D02B000ED123AECFF0F0AB50020B03E12A
:10009000AB50040B06E00001F06BAB98AB8889987D
:1000A00005D00001EEBF02D0F0C0ADFFF05104E179
:1000B000010E0001D86FD96B3F0E0001F05D08E121
:1000C00089980001E12BE151090804E20001EE8F5B
:1000D0000001E16B0001F0AF23D03F0EF015E66E9A
:1000E000D8C0E9FFD9C0EAFFD890E936EA36C20E97
:1000F000E926000EEA22E552E750EE6EED6A0001B5
:10010000D82B000ED923D93501E3EBD0D8510608FE
:10011000000ED95501E3E5D0010ED86FD96BE1D0BF
:10012000010E0001D86FD96B0F0EC415046E056A5D
:10013000060ED89004360536E804FBE104500001B1
:10014000C6250001F16F05500001C7210001F26FC3
:10015000F0510001C26FC36B0001F051650A01E16B
:10016000A5D00C0A01E187D0060A6AE0200A4DE01A
:10017000090A01E0B6D00001D22BD251020802E2F6
:100180000001EE950001F2353DE2F151F408010E57
:10019000F25538E2D890F25104E6BC0EF15D020E41
:1001A000F25930E2EE850001D26BE2510001F15DBF
:1001B000046EF2510001E355056E04C0DEFFDD6EF2
:1001C000DECF04F0DDCF05F0800E05140AE0DECFAF
:1001D000ECF0DDCFEDF00001EC6DED1F000EED2336
:1001E00004D0DECFECF0DDCFEDF0F1C0E2F0F2C0F4
:1001F000E3F00001EC51EA5DED51EB5903E3EE81D0
:100200008A906FD0EE918A806CD00001D32BD351AD
:10021000020802E20001EE970001F23562E2F151BC
:100220004A08010EF2555DE2D890F25104E6840EC0
:10023000F15D030EF25955E2EE870001D36B51D008
:100240000001D42BD451020802E20001EE99000112
:10025000F23547E2F1519008010EF25542E2D89092
:10026000F25104E6840EF15D030EF2593AE2EE8992
:100270000001D46B36D00001D52BD551020802E223
:100280000001EE9B0001F2352CE2F151BC08020E98
:10029000F25527E2D890F25104E61A0EF15D040EF1
:1002A000F2591FE2EE8B0001D56B1BD0EE830001EB
:1002B000D62BD651020802E20001EE9D0001F23574
:1002C00010E2F1512C08010EF2550BE2D890F251D8
:1002D00004E6BC0EF15D020EF25903E2EE8D000160
:1002E000D66B9EA007D09E9014DA0001D75102E190
:1002F0000001EE83F2A49FD0F29414DA00010A0EFA
:10030000D880D055000ED15505E2010ED76FD06BC5
:10031000D16B08D0D76B0001EE9DEE9BEE99EE9766
:10032000EE958A8089880001E851E91135E0E451B1
:10033000010B01E0EF71E451020B06E0EF51010BFC
:1003400002E0EF9301D0EF83E451040B01E0EF757D
:10035000E451080B06E0EF51040B02E0EF9701D0E7
:10036000EF87E451100B01E0EF79E451200B06E038
:10037000EF51100B02E0EF9B01D0EF8BE451400BEB
:1003800001E0EF7DE451800B27E0EF51400B02E0EC
:10039000EF9F22D0EF8F20D0E451010B01E0EF71ED
:1003A000E451020B01E0EF73E451040B01E0EF753F
:1003B000E451080B01E0EF77E451100B01E0EF7915
:1003C000E451200B01E0EF7BE451400B01E0EF7DB5
:1003D000E451800B01E0EF7F0001E0510001EF5D8F
:1003E0002AE0EFA102D0899001D08980EFA302D04A
:1003F000899201D08982EFA502D0899401D08984A5
:10040000EFA702D0899601D08986EFA902D08A9CF5
:1004100001D08A8CEFAB02D08A9E01D08A8EEFADDC
:1004200002D0899C01D0898CEFAF02D08A9A01D08A
:100430008A8AEFC0E0F0020EE15C02E2E16AE55276
:10044000E16EE552E7CFD9FFE55200EE03F0040E6E
:10045000E80403E3E5CFEDFFFBD700EE07F0020E63
:10046000E80403E3E5CFEDFFFBD7E5CFFBFFE5CFE6
:10047000FAFFE5CFF4FFE5CFF3FFE5CFF5FFE5CFDA
:10048000F8FFE5CFF7FFE5CFF6FFE5CFEAFFE5CFD1
:10049000E9FFE5CFDAFF11000001EEA38BD0EE51AA
:1004A000400B01E0010E036EEE51200B01E0010E46
:1004B000026EEE51100B01E0010E016EEE51080BC1
:1004C00001E0010E006EEE51040B01E0010E00147C
:1004D0000114021403141BE0ED3504E2EC511E0874
:1004E000000EED5514E3E66A010EE66E0AD9E66ADF
:1004F000010E2FD9020E32D9030E2BD9040E2ED99C
:10050000050E27D9060E2AD9070EF4D851D0480E69
:10051000086EEE0E096EEEAD08D0010EE66EE66EC8
:10052000F0D8E66A010E1ED907D0010EE66EE66A23
:10053000E8D8010EE66EDED80001EEA708D0010E65
:10054000E66EE66E020E0AD9030E0CD907D0010E34
:10055000E66EE66A020EFDD8030ECCD80001EEABC3
:1005600008D0010EE66EE66E040EF8D8050EFAD835
:1005700007D0010EE66EE66A040EEBD8050EBAD877
:100580000001EEA908D0010EE66EE66E060EE6D872
:10059000070EE8D807D0010EE66EE66A060ED9D837
:1005A000070EA8D8F29E08C0C0F009C0C1F0F28EB4
:1005B0000001EE93F36AF46A1200F29EBCD81AE1CD
:1005C000ACA2FED70D0EAD6EACA2FED70A0EAD6E7C
:1005D000ACA2FED74E0EAD6EACA2FED74F0EAD6EE6
:1005E000ACA2FED7520EAD6E080E0001EA6FEB6BA7
:1005F000440E17D0010E0001EA6FEB6B0D0EAD6ECD
:10060000ACA2FED70A0EAD6EACA2FED7460EAD6E02
:10061000ACA2FED7490EAD6EACA2FED74E0EAD6EAB
:100620003F0EE66E000EE66EE66A01EC05F0E5525E
:10063000E552E552F4EC05F0F28E0001EE9F898858
:1006400012007F0EC16ED08E926A120E936E899048
:100650008992899489968A9C8A9E899C8A9A8A9092
:1006600089984FEC04F00001480EC06FEE0EC16F88
:10067000950EE66EAFEC05F0E55254D8E50EE66E49
:1006800056EC05F0E55245D88A962A0EE66EE66AE3
:100690007C0EE66EBCEC04F0E552E552E552AA860B
:1006A000AC84B06A2A0EAF6EF28AF1849D809F807E
:1006B0000001EE93EE91EE9F080EEA6FEB6B3BD8D4
:1006C00004E1010E0001EA6FEB6BACA2FED7460E0F
:1006D000AD6EACA2FED7470EAD6EACA2FED7420EF9
:1006E000AD6EACA2FED7F28ED7DE0001EEAFFCD726
:1006F00064DFFAD7E66EB5EC03F0E552E552E55259
:100700001200E66AB5EC03F0E552E552E552E66AFE
:100710001200B20EE66EE70EE66E77EC05F0E552DB
:10072000E5521200C0C0E6FFC1C0E6FF93EC05F041
:10073000E552E5521200000EE66EE66A34EC05F072
:10074000E552E5523F081200C40E085E090E095A30
:100750001200D0DFE66A010EE66E1200CBDFE66A19
:0A076000E66A1200C7DFA4EF03F001
:06076A00A3D8070869E3B3
:10077000FD0EDB5010E0A4D802E0ABD8FEE1F35050
:10078000F31C006E016A00BE016800500001E6170C
:100790000150E7170ED094D802E09BD8FEE1F35049
:1007A000006E016A00BE016800500001E6130150AE
:1007B000E713FC0EDB500FE083D802E08AD8FEE19D
:1007C000F350006E016A00BE016800500001E4139E
:1007D0000150E51336D074D802E07BD8FEE1F35027
:1007E000F31C006E016A00BE016800500001E417AE
:1007F0000150E51765D802E06CD8FEE1F350F31C18
:100800000001EF17FE0EDB50E6C002F0E7C003F078
:1008100005E0D89003320232E804FBE1010E021633
:10082000000E0316FE0EDB5002C000F003C001F004
:1008300005E0D89000360136E804FBE100500001E5
:10084000EF130001EF5141D034D8E4C000F0E5C00F
:1008500001F005E0D89001320032E804FBE1010E1E
:10086000001433D0D9CFE6FFE1CFD9FFE652E8C07C
:10087000DFFFFE0EDB500001E86FE96BDF50E55251
:1008800024D017D8E6C000F0E7C001F005E0D8900A
:1008900001320032E804FBE1010E001416D0000121
:1008A000EF690001E46BE56BE66BE76BE86BE96B06
:1008B0001200D9CFE6FFE1CFD9FFFE0EDB501200C8
:1008C000010EF36EFE0EDB501200E552E7CFD9FFAA
:0A08D0001200D890F336E80612007B
:0608DA000E0EF66E000E8A
:1008E000F76E000EF86E00010900F550F86F090070
:1008F000F550F96F03E1F86701D03DD00900F550DC
:10090000F36F0900F550F46F0900F550F56F090019
:100910000900F550E96E0900F550EA6E090009007A
:100920000900F550F66F0900F550F76F090009004E
:10093000F6CFFAF0F7CFFBF0F8CFFCF0F3C0F6FFFC
:10094000F4C0F7FFF5C0F8FF0001F65302E1F753DA
:1009500007E00900F550EE6EF607F8E2F707F9D761
:10096000FAC0F6FFFBC0F7FFFCC0F8FF0001F80774
:08097000000EF95BBFD7120075
:08097800D9CFE6FFDACFE6FF5C
:10098000E1CFD9FFE2CFDAFFAC6AAB6AFD0EDBB094
:10099000AC88DBA202D0AC8CAB8CDBB4AC8EDBA61B
:1009A00002D0AB8801D0AB8ADBB8AC849E98DBBAAE
:1009B000AB86DBAC02D09D8A01D09D9A9E9ADBAEBD
:1009C00002D09D8801D09D98FB0EDB50AF6EFB0ED0
:1009D000FC0EDBCF01F001C000F0016A0050B06EE8
:1009E000AC8AAB8E93929388AC50100B04E0AC5061
:1009F000800B01E19382E552E5CFDAFFE7CFD9FF23
:020A00001200E2
:0E0A0200D9CFE6FFDACFE6FFE1CFD9FFE2CF92
:100A1000DAFFE652DF6AFF0EE76EFC0EDBCF00F076
:100A2000E75000160050A96EFB0EDB50A86EA69E84
:100A3000A69CA684F250800B01E0010EDF6EF29EB0
:100A4000550EA76EAA0EA76EA682A6B2FED7DF50DD
:100A5000E8B0F28EE8A0F29EA694E552E552E5CF0A
:080A6000DAFFE7CFD9FF120015
:080A6800D9CFE6FFDACFE6FF6B
:100A7000E1CFD9FFE2CFDAFFFF0EE76EFC0EDBCF4E
:100A800000F0FD0EDBCF01F0E7500016016A0050C8
:100A9000A96EA69CA69EA68000000000A85000D0CB
:0C0AA000E552E5CFDAFFE7CFD9FF1200E6
:040AAC00D9CFE6FFB9
:100AB000DACFE6FFE1CFD9FFE2CFDAFFFD0EDB5060
:100AC0007E0BCD6EFD0EDBAC02D0CD8E01D0CD9E67
:100AD000CF6ACE6A9E90DBAE02D09D8001D09D9001
:0E0AE000CD80E552E5CFDAFFE7CFD9FF120057
:020AEE00D9CF5E
:100AF000E6FFDACFE6FFE1CFD9FFE2CFDAFFE65239
:100B0000E652FC0EDBCFDEFFDBCFDDFF010EDB505C
:100B1000CF6EDF50CE6EE552E552E552E5CFDAFFFB
:060B2000E7CFD9FF12002F
:0A0B2600D9CFE6FFDACFE6FFE1CFFA
:100B3000D9FFE2CFDAFFE652E652FC0EDBCFDEFF52
:100B4000DBCFDDFF010EDB50D76EDF50D66EE552F6
:0E0B5000E552E552E5CFDAFFE7CFD9FF1200FC
:020B5E00D9CFED
:100B6000E6FFDACFE6FFE1CFD9FFE2CFDAFFFD0EF5
:100B7000DB507F0BD56ED76AD66AF294FD0EDBAEE2
:100B800002D0F28A01D0F29AD58EE552E5CFDAFF93
:060B9000E7CFD9FF1200BF
:0A0B9600000EF36E00EE00F0010EF9
:100BA00001D81200EA6002D0EE6AFCD7F350E96087
:060BB0001200EE6AFCD702
:0A0BB60010EE80F020EE80F0F86AE7
:100BC000079C6DEC04F003EC00F021EC03F0FBD784
:020BD000120011
:0E0BD20031333A31353A3539004A616E2031FF
:070BE00031203230313400F6
:060BE800A6B2FED71200C8
:020BEE00DC85A4
:100BF00000000000000000000000000000000000F5
:100C00000000000000000100DB0B00D20B00FF0021
:020C10000000E2
:020000040030CA
:01000100C539
:010002000FEE
:010003001EDE
:01000500807A
:010006008178
:0100080000F7
:01000900C036
:01000A0003F2
:01000B00E014
:01000C0003F0
:01000D0040B2
:00000001FF
